{
	"CalculatorLogError.sol": {
		"Calculator": {
			"abi": [
				{
					"anonymous": false,
					"inputs": [
						{
							"indexed": false,
							"internalType": "uint256",
							"name": "input",
							"type": "uint256"
						},
						{
							"indexed": false,
							"internalType": "string",
							"name": "reason",
							"type": "string"
						}
					],
					"name": "InputRejected",
					"type": "event"
				},
				{
					"inputs": [
						{
							"internalType": "uint256",
							"name": "principal",
							"type": "uint256"
						},
						{
							"internalType": "uint256",
							"name": "rate",
							"type": "uint256"
						},
						{
							"internalType": "uint256",
							"name": "year",
							"type": "uint256"
						}
					],
					"name": "calculateInterest",
					"outputs": [
						{
							"internalType": "uint256",
							"name": "",
							"type": "uint256"
						}
					],
					"stateMutability": "nonpayable",
					"type": "function"
				},
				{
					"inputs": [],
					"name": "total",
					"outputs": [
						{
							"internalType": "uint256",
							"name": "",
							"type": "uint256"
						}
					],
					"stateMutability": "view",
					"type": "function"
				}
			],
			"devdoc": {
				"kind": "dev",
				"methods": {},
				"version": 1
			},
			"evm": {
				"assembly": "    /* \"CalculatorLogError.sol\":62:914  contract Calculator {... */\n  mstore(0x40, 0x80)\n  callvalue\n  dup1\n  iszero\n  tag_1\n  jumpi\n  revert(0x00, 0x00)\ntag_1:\n  pop\n  dataSize(sub_0)\n  dup1\n  dataOffset(sub_0)\n  0x00\n  codecopy\n  0x00\n  return\nstop\n\nsub_0: assembly {\n        /* \"CalculatorLogError.sol\":62:914  contract Calculator {... */\n      mstore(0x40, 0x80)\n      callvalue\n      dup1\n      iszero\n      tag_1\n      jumpi\n      revert(0x00, 0x00)\n    tag_1:\n      pop\n      jumpi(tag_2, lt(calldatasize, 0x04))\n      shr(0xe0, calldataload(0x00))\n      dup1\n      0x05e1bd8c\n      eq\n      tag_3\n      jumpi\n      dup1\n      0x2ddbd13a\n      eq\n      tag_4\n      jumpi\n    tag_2:\n      revert(0x00, 0x00)\n        /* \"CalculatorLogError.sol\":176:911  function calculateInterest(uint256 principal, uint256 rate, uint256 year) public returns (uint256) {... */\n    tag_3:\n      tag_5\n      0x04\n      dup1\n      calldatasize\n      sub\n      dup2\n      add\n      swap1\n      tag_6\n      swap2\n      swap1\n      tag_7\n      jump\t// in\n    tag_6:\n      tag_8\n      jump\t// in\n    tag_5:\n      mload(0x40)\n      tag_9\n      swap2\n      swap1\n      tag_10\n      jump\t// in\n    tag_9:\n      mload(0x40)\n      dup1\n      swap2\n      sub\n      swap1\n      return\n        /* \"CalculatorLogError.sol\":89:109  uint256 public total */\n    tag_4:\n      tag_11\n      tag_12\n      jump\t// in\n    tag_11:\n      mload(0x40)\n      tag_13\n      swap2\n      swap1\n      tag_10\n      jump\t// in\n    tag_13:\n      mload(0x40)\n      dup1\n      swap2\n      sub\n      swap1\n      return\n        /* \"CalculatorLogError.sol\":176:911  function calculateInterest(uint256 principal, uint256 rate, uint256 year) public returns (uint256) {... */\n    tag_8:\n        /* \"CalculatorLogError.sol\":266:273  uint256 */\n      0x00\n        /* \"CalculatorLogError.sol\":302:303  1 */\n      0x01\n        /* \"CalculatorLogError.sol\":290:299  principal */\n      dup5\n        /* \"CalculatorLogError.sol\":290:303  principal < 1 */\n      lt\n        /* \"CalculatorLogError.sol\":286:455  if (principal < 1) {... */\n      iszero\n      tag_15\n      jumpi\n        /* \"CalculatorLogError.sol\":325:396  InputRejected(principal, \"Loan \\\"Principal\\\" should bigger then zero.\") */\n      0xdf76322bf7054ef3fbb4db9444ea56645b3acc2aad8cafc25282f3138f2f921b\n        /* \"CalculatorLogError.sol\":339:348  principal */\n      dup5\n        /* \"CalculatorLogError.sol\":325:396  InputRejected(principal, \"Loan \\\"Principal\\\" should bigger then zero.\") */\n      mload(0x40)\n      tag_16\n      swap2\n      swap1\n      tag_17\n      jump\t// in\n    tag_16:\n      mload(0x40)\n      dup1\n      swap2\n      sub\n      swap1\n      log1\n        /* \"CalculatorLogError.sol\":420:425  total */\n      sload(0x00)\n        /* \"CalculatorLogError.sol\":413:425  return total */\n      swap1\n      pop\n      jump(tag_14)\n        /* \"CalculatorLogError.sol\":286:455  if (principal < 1) {... */\n    tag_15:\n        /* \"CalculatorLogError.sol\":478:479  0 */\n      0x00\n        /* \"CalculatorLogError.sol\":471:475  rate */\n      dup4\n        /* \"CalculatorLogError.sol\":471:479  rate > 0 */\n      gt\n        /* \"CalculatorLogError.sol\":471:493  rate > 0 && rate < 101 */\n      dup1\n      iszero\n      tag_18\n      jumpi\n      pop\n        /* \"CalculatorLogError.sol\":490:493  101 */\n      0x65\n        /* \"CalculatorLogError.sol\":483:487  rate */\n      dup4\n        /* \"CalculatorLogError.sol\":483:493  rate < 101 */\n      lt\n        /* \"CalculatorLogError.sol\":471:493  rate > 0 && rate < 101 */\n    tag_18:\n        /* \"CalculatorLogError.sol\":467:644  if (rate > 0 && rate < 101) {... */\n      iszero\n      tag_19\n      jumpi\n        /* \"CalculatorLogError.sol\":515:585  InputRejected(principal, \"Loan \\\"Rate\\\" should be between 1 and 100.\") */\n      0xdf76322bf7054ef3fbb4db9444ea56645b3acc2aad8cafc25282f3138f2f921b\n        /* \"CalculatorLogError.sol\":529:538  principal */\n      dup5\n        /* \"CalculatorLogError.sol\":515:585  InputRejected(principal, \"Loan \\\"Rate\\\" should be between 1 and 100.\") */\n      mload(0x40)\n      tag_20\n      swap2\n      swap1\n      tag_21\n      jump\t// in\n    tag_20:\n      mload(0x40)\n      dup1\n      swap2\n      sub\n      swap1\n      log1\n        /* \"CalculatorLogError.sol\":609:614  total */\n      sload(0x00)\n        /* \"CalculatorLogError.sol\":602:614  return total */\n      swap1\n      pop\n      jump(tag_14)\n        /* \"CalculatorLogError.sol\":467:644  if (rate > 0 && rate < 101) {... */\n    tag_19:\n        /* \"CalculatorLogError.sol\":667:668  1 */\n      0x01\n        /* \"CalculatorLogError.sol\":660:664  year */\n      dup3\n        /* \"CalculatorLogError.sol\":660:668  year < 1 */\n      lt\n        /* \"CalculatorLogError.sol\":656:815  if (year < 1) {... */\n      iszero\n      tag_22\n      jumpi\n        /* \"CalculatorLogError.sol\":690:756  InputRejected(principal, \"Loan \\\"Year\\\" should bigger then zero.\") */\n      0xdf76322bf7054ef3fbb4db9444ea56645b3acc2aad8cafc25282f3138f2f921b\n        /* \"CalculatorLogError.sol\":704:713  principal */\n      dup5\n        /* \"CalculatorLogError.sol\":690:756  InputRejected(principal, \"Loan \\\"Year\\\" should bigger then zero.\") */\n      mload(0x40)\n      tag_23\n      swap2\n      swap1\n      tag_24\n      jump\t// in\n    tag_23:\n      mload(0x40)\n      dup1\n      swap2\n      sub\n      swap1\n      log1\n        /* \"CalculatorLogError.sol\":780:785  total */\n      sload(0x00)\n        /* \"CalculatorLogError.sol\":773:785  return total */\n      swap1\n      pop\n      jump(tag_14)\n        /* \"CalculatorLogError.sol\":656:815  if (year < 1) {... */\n    tag_22:\n        /* \"CalculatorLogError.sol\":875:878  100 */\n      0x64\n        /* \"CalculatorLogError.sol\":867:871  year */\n      dup3\n        /* \"CalculatorLogError.sol\":860:864  rate */\n      dup5\n        /* \"CalculatorLogError.sol\":848:857  principal */\n      dup7\n        /* \"CalculatorLogError.sol\":848:864  principal * rate */\n      tag_25\n      swap2\n      swap1\n      tag_26\n      jump\t// in\n    tag_25:\n        /* \"CalculatorLogError.sol\":848:871  principal * rate * year */\n      tag_27\n      swap2\n      swap1\n      tag_26\n      jump\t// in\n    tag_27:\n        /* \"CalculatorLogError.sol\":847:878  (principal * rate * year) / 100 */\n      tag_28\n      swap2\n      swap1\n      tag_29\n      jump\t// in\n    tag_28:\n        /* \"CalculatorLogError.sol\":835:844  principal */\n      dup5\n        /* \"CalculatorLogError.sol\":835:878  principal + (principal * rate * year) / 100 */\n      tag_30\n      swap2\n      swap1\n      tag_31\n      jump\t// in\n    tag_30:\n        /* \"CalculatorLogError.sol\":827:832  total */\n      0x00\n        /* \"CalculatorLogError.sol\":827:878  total = principal + (principal * rate * year) / 100 */\n      dup2\n      swap1\n      sstore\n      pop\n        /* \"CalculatorLogError.sol\":898:903  total */\n      sload(0x00)\n        /* \"CalculatorLogError.sol\":891:903  return total */\n      swap1\n      pop\n        /* \"CalculatorLogError.sol\":176:911  function calculateInterest(uint256 principal, uint256 rate, uint256 year) public returns (uint256) {... */\n    tag_14:\n      swap4\n      swap3\n      pop\n      pop\n      pop\n      jump\t// out\n        /* \"CalculatorLogError.sol\":89:109  uint256 public total */\n    tag_12:\n      sload(0x00)\n      dup2\n      jump\t// out\n        /* \"#utility.yul\":88:205   */\n    tag_33:\n        /* \"#utility.yul\":197:198   */\n      0x00\n        /* \"#utility.yul\":194:195   */\n      0x00\n        /* \"#utility.yul\":187:199   */\n      revert\n        /* \"#utility.yul\":334:411   */\n    tag_35:\n        /* \"#utility.yul\":371:378   */\n      0x00\n        /* \"#utility.yul\":400:405   */\n      dup2\n        /* \"#utility.yul\":389:405   */\n      swap1\n      pop\n        /* \"#utility.yul\":334:411   */\n      swap2\n      swap1\n      pop\n      jump\t// out\n        /* \"#utility.yul\":417:539   */\n    tag_36:\n        /* \"#utility.yul\":490:514   */\n      tag_54\n        /* \"#utility.yul\":508:513   */\n      dup2\n        /* \"#utility.yul\":490:514   */\n      tag_35\n      jump\t// in\n    tag_54:\n        /* \"#utility.yul\":483:488   */\n      dup2\n        /* \"#utility.yul\":480:515   */\n      eq\n        /* \"#utility.yul\":470:533   */\n      tag_55\n      jumpi\n        /* \"#utility.yul\":529:530   */\n      0x00\n        /* \"#utility.yul\":526:527   */\n      0x00\n        /* \"#utility.yul\":519:531   */\n      revert\n        /* \"#utility.yul\":470:533   */\n    tag_55:\n        /* \"#utility.yul\":417:539   */\n      pop\n      jump\t// out\n        /* \"#utility.yul\":545:684   */\n    tag_37:\n        /* \"#utility.yul\":591:596   */\n      0x00\n        /* \"#utility.yul\":629:635   */\n      dup2\n        /* \"#utility.yul\":616:636   */\n      calldataload\n        /* \"#utility.yul\":607:636   */\n      swap1\n      pop\n        /* \"#utility.yul\":645:678   */\n      tag_57\n        /* \"#utility.yul\":672:677   */\n      dup2\n        /* \"#utility.yul\":645:678   */\n      tag_36\n      jump\t// in\n    tag_57:\n        /* \"#utility.yul\":545:684   */\n      swap3\n      swap2\n      pop\n      pop\n      jump\t// out\n        /* \"#utility.yul\":690:1309   */\n    tag_7:\n        /* \"#utility.yul\":767:773   */\n      0x00\n        /* \"#utility.yul\":775:781   */\n      0x00\n        /* \"#utility.yul\":783:789   */\n      0x00\n        /* \"#utility.yul\":832:834   */\n      0x60\n        /* \"#utility.yul\":820:829   */\n      dup5\n        /* \"#utility.yul\":811:818   */\n      dup7\n        /* \"#utility.yul\":807:830   */\n      sub\n        /* \"#utility.yul\":803:835   */\n      slt\n        /* \"#utility.yul\":800:919   */\n      iszero\n      tag_59\n      jumpi\n        /* \"#utility.yul\":838:917   */\n      tag_60\n      tag_33\n      jump\t// in\n    tag_60:\n        /* \"#utility.yul\":800:919   */\n    tag_59:\n        /* \"#utility.yul\":958:959   */\n      0x00\n        /* \"#utility.yul\":983:1036   */\n      tag_61\n        /* \"#utility.yul\":1028:1035   */\n      dup7\n        /* \"#utility.yul\":1019:1025   */\n      dup3\n        /* \"#utility.yul\":1008:1017   */\n      dup8\n        /* \"#utility.yul\":1004:1026   */\n      add\n        /* \"#utility.yul\":983:1036   */\n      tag_37\n      jump\t// in\n    tag_61:\n        /* \"#utility.yul\":973:1036   */\n      swap4\n      pop\n        /* \"#utility.yul\":929:1046   */\n      pop\n        /* \"#utility.yul\":1085:1087   */\n      0x20\n        /* \"#utility.yul\":1111:1164   */\n      tag_62\n        /* \"#utility.yul\":1156:1163   */\n      dup7\n        /* \"#utility.yul\":1147:1153   */\n      dup3\n        /* \"#utility.yul\":1136:1145   */\n      dup8\n        /* \"#utility.yul\":1132:1154   */\n      add\n        /* \"#utility.yul\":1111:1164   */\n      tag_37\n      jump\t// in\n    tag_62:\n        /* \"#utility.yul\":1101:1164   */\n      swap3\n      pop\n        /* \"#utility.yul\":1056:1174   */\n      pop\n        /* \"#utility.yul\":1213:1215   */\n      0x40\n        /* \"#utility.yul\":1239:1292   */\n      tag_63\n        /* \"#utility.yul\":1284:1291   */\n      dup7\n        /* \"#utility.yul\":1275:1281   */\n      dup3\n        /* \"#utility.yul\":1264:1273   */\n      dup8\n        /* \"#utility.yul\":1260:1282   */\n      add\n        /* \"#utility.yul\":1239:1292   */\n      tag_37\n      jump\t// in\n    tag_63:\n        /* \"#utility.yul\":1229:1292   */\n      swap2\n      pop\n        /* \"#utility.yul\":1184:1302   */\n      pop\n        /* \"#utility.yul\":690:1309   */\n      swap3\n      pop\n      swap3\n      pop\n      swap3\n      jump\t// out\n        /* \"#utility.yul\":1315:1433   */\n    tag_38:\n        /* \"#utility.yul\":1402:1426   */\n      tag_65\n        /* \"#utility.yul\":1420:1425   */\n      dup2\n        /* \"#utility.yul\":1402:1426   */\n      tag_35\n      jump\t// in\n    tag_65:\n        /* \"#utility.yul\":1397:1400   */\n      dup3\n        /* \"#utility.yul\":1390:1427   */\n      mstore\n        /* \"#utility.yul\":1315:1433   */\n      pop\n      pop\n      jump\t// out\n        /* \"#utility.yul\":1439:1661   */\n    tag_10:\n        /* \"#utility.yul\":1532:1536   */\n      0x00\n        /* \"#utility.yul\":1570:1572   */\n      0x20\n        /* \"#utility.yul\":1559:1568   */\n      dup3\n        /* \"#utility.yul\":1555:1573   */\n      add\n        /* \"#utility.yul\":1547:1573   */\n      swap1\n      pop\n        /* \"#utility.yul\":1583:1654   */\n      tag_67\n        /* \"#utility.yul\":1651:1652   */\n      0x00\n        /* \"#utility.yul\":1640:1649   */\n      dup4\n        /* \"#utility.yul\":1636:1653   */\n      add\n        /* \"#utility.yul\":1627:1633   */\n      dup5\n        /* \"#utility.yul\":1583:1654   */\n      tag_38\n      jump\t// in\n    tag_67:\n        /* \"#utility.yul\":1439:1661   */\n      swap3\n      swap2\n      pop\n      pop\n      jump\t// out\n        /* \"#utility.yul\":1667:1836   */\n    tag_39:\n        /* \"#utility.yul\":1751:1762   */\n      0x00\n        /* \"#utility.yul\":1785:1791   */\n      dup3\n        /* \"#utility.yul\":1780:1783   */\n      dup3\n        /* \"#utility.yul\":1773:1792   */\n      mstore\n        /* \"#utility.yul\":1825:1829   */\n      0x20\n        /* \"#utility.yul\":1820:1823   */\n      dup3\n        /* \"#utility.yul\":1816:1830   */\n      add\n        /* \"#utility.yul\":1801:1830   */\n      swap1\n      pop\n        /* \"#utility.yul\":1667:1836   */\n      swap3\n      swap2\n      pop\n      pop\n      jump\t// out\n        /* \"#utility.yul\":1842:2102   */\n    tag_40:\n        /* \"#utility.yul\":1982:2048   */\n      0x4c6f616e20225072696e636970616c222073686f756c64206269676765722074\n        /* \"#utility.yul\":1978:1979   */\n      0x00\n        /* \"#utility.yul\":1970:1976   */\n      dup3\n        /* \"#utility.yul\":1966:1980   */\n      add\n        /* \"#utility.yul\":1959:2049   */\n      mstore\n        /* \"#utility.yul\":2083:2094   */\n      0x68656e207a65726f2e0000000000000000000000000000000000000000000000\n        /* \"#utility.yul\":2078:2080   */\n      0x20\n        /* \"#utility.yul\":2070:2076   */\n      dup3\n        /* \"#utility.yul\":2066:2081   */\n      add\n        /* \"#utility.yul\":2059:2095   */\n      mstore\n        /* \"#utility.yul\":1842:2102   */\n      pop\n      jump\t// out\n        /* \"#utility.yul\":2108:2474   */\n    tag_41:\n        /* \"#utility.yul\":2250:2253   */\n      0x00\n        /* \"#utility.yul\":2271:2338   */\n      tag_71\n        /* \"#utility.yul\":2335:2337   */\n      0x29\n        /* \"#utility.yul\":2330:2333   */\n      dup4\n        /* \"#utility.yul\":2271:2338   */\n      tag_39\n      jump\t// in\n    tag_71:\n        /* \"#utility.yul\":2264:2338   */\n      swap2\n      pop\n        /* \"#utility.yul\":2347:2440   */\n      tag_72\n        /* \"#utility.yul\":2436:2439   */\n      dup3\n        /* \"#utility.yul\":2347:2440   */\n      tag_40\n      jump\t// in\n    tag_72:\n        /* \"#utility.yul\":2465:2467   */\n      0x40\n        /* \"#utility.yul\":2460:2463   */\n      dup3\n        /* \"#utility.yul\":2456:2468   */\n      add\n        /* \"#utility.yul\":2449:2468   */\n      swap1\n      pop\n        /* \"#utility.yul\":2108:2474   */\n      swap2\n      swap1\n      pop\n      jump\t// out\n        /* \"#utility.yul\":2480:3009   */\n    tag_17:\n        /* \"#utility.yul\":2674:2678   */\n      0x00\n        /* \"#utility.yul\":2712:2714   */\n      0x40\n        /* \"#utility.yul\":2701:2710   */\n      dup3\n        /* \"#utility.yul\":2697:2715   */\n      add\n        /* \"#utility.yul\":2689:2715   */\n      swap1\n      pop\n        /* \"#utility.yul\":2725:2796   */\n      tag_74\n        /* \"#utility.yul\":2793:2794   */\n      0x00\n        /* \"#utility.yul\":2782:2791   */\n      dup4\n        /* \"#utility.yul\":2778:2795   */\n      add\n        /* \"#utility.yul\":2769:2775   */\n      dup5\n        /* \"#utility.yul\":2725:2796   */\n      tag_38\n      jump\t// in\n    tag_74:\n        /* \"#utility.yul\":2843:2852   */\n      dup2\n        /* \"#utility.yul\":2837:2841   */\n      dup2\n        /* \"#utility.yul\":2833:2853   */\n      sub\n        /* \"#utility.yul\":2828:2830   */\n      0x20\n        /* \"#utility.yul\":2817:2826   */\n      dup4\n        /* \"#utility.yul\":2813:2831   */\n      add\n        /* \"#utility.yul\":2806:2854   */\n      mstore\n        /* \"#utility.yul\":2871:3002   */\n      tag_75\n        /* \"#utility.yul\":2997:3001   */\n      dup2\n        /* \"#utility.yul\":2871:3002   */\n      tag_41\n      jump\t// in\n    tag_75:\n        /* \"#utility.yul\":2863:3002   */\n      swap1\n      pop\n        /* \"#utility.yul\":2480:3009   */\n      swap3\n      swap2\n      pop\n      pop\n      jump\t// out\n        /* \"#utility.yul\":3015:3274   */\n    tag_42:\n        /* \"#utility.yul\":3155:3221   */\n      0x4c6f616e202252617465222073686f756c64206265206265747765656e203120\n        /* \"#utility.yul\":3151:3152   */\n      0x00\n        /* \"#utility.yul\":3143:3149   */\n      dup3\n        /* \"#utility.yul\":3139:3153   */\n      add\n        /* \"#utility.yul\":3132:3222   */\n      mstore\n        /* \"#utility.yul\":3256:3266   */\n      0x616e64203130302e000000000000000000000000000000000000000000000000\n        /* \"#utility.yul\":3251:3253   */\n      0x20\n        /* \"#utility.yul\":3243:3249   */\n      dup3\n        /* \"#utility.yul\":3239:3254   */\n      add\n        /* \"#utility.yul\":3232:3267   */\n      mstore\n        /* \"#utility.yul\":3015:3274   */\n      pop\n      jump\t// out\n        /* \"#utility.yul\":3280:3646   */\n    tag_43:\n        /* \"#utility.yul\":3422:3425   */\n      0x00\n        /* \"#utility.yul\":3443:3510   */\n      tag_78\n        /* \"#utility.yul\":3507:3509   */\n      0x28\n        /* \"#utility.yul\":3502:3505   */\n      dup4\n        /* \"#utility.yul\":3443:3510   */\n      tag_39\n      jump\t// in\n    tag_78:\n        /* \"#utility.yul\":3436:3510   */\n      swap2\n      pop\n        /* \"#utility.yul\":3519:3612   */\n      tag_79\n        /* \"#utility.yul\":3608:3611   */\n      dup3\n        /* \"#utility.yul\":3519:3612   */\n      tag_42\n      jump\t// in\n    tag_79:\n        /* \"#utility.yul\":3637:3639   */\n      0x40\n        /* \"#utility.yul\":3632:3635   */\n      dup3\n        /* \"#utility.yul\":3628:3640   */\n      add\n        /* \"#utility.yul\":3621:3640   */\n      swap1\n      pop\n        /* \"#utility.yul\":3280:3646   */\n      swap2\n      swap1\n      pop\n      jump\t// out\n        /* \"#utility.yul\":3652:4181   */\n    tag_21:\n        /* \"#utility.yul\":3846:3850   */\n      0x00\n        /* \"#utility.yul\":3884:3886   */\n      0x40\n        /* \"#utility.yul\":3873:3882   */\n      dup3\n        /* \"#utility.yul\":3869:3887   */\n      add\n        /* \"#utility.yul\":3861:3887   */\n      swap1\n      pop\n        /* \"#utility.yul\":3897:3968   */\n      tag_81\n        /* \"#utility.yul\":3965:3966   */\n      0x00\n        /* \"#utility.yul\":3954:3963   */\n      dup4\n        /* \"#utility.yul\":3950:3967   */\n      add\n        /* \"#utility.yul\":3941:3947   */\n      dup5\n        /* \"#utility.yul\":3897:3968   */\n      tag_38\n      jump\t// in\n    tag_81:\n        /* \"#utility.yul\":4015:4024   */\n      dup2\n        /* \"#utility.yul\":4009:4013   */\n      dup2\n        /* \"#utility.yul\":4005:4025   */\n      sub\n        /* \"#utility.yul\":4000:4002   */\n      0x20\n        /* \"#utility.yul\":3989:3998   */\n      dup4\n        /* \"#utility.yul\":3985:4003   */\n      add\n        /* \"#utility.yul\":3978:4026   */\n      mstore\n        /* \"#utility.yul\":4043:4174   */\n      tag_82\n        /* \"#utility.yul\":4169:4173   */\n      dup2\n        /* \"#utility.yul\":4043:4174   */\n      tag_43\n      jump\t// in\n    tag_82:\n        /* \"#utility.yul\":4035:4174   */\n      swap1\n      pop\n        /* \"#utility.yul\":3652:4181   */\n      swap3\n      swap2\n      pop\n      pop\n      jump\t// out\n        /* \"#utility.yul\":4187:4442   */\n    tag_44:\n        /* \"#utility.yul\":4327:4393   */\n      0x4c6f616e202259656172222073686f756c6420626967676572207468656e207a\n        /* \"#utility.yul\":4323:4324   */\n      0x00\n        /* \"#utility.yul\":4315:4321   */\n      dup3\n        /* \"#utility.yul\":4311:4325   */\n      add\n        /* \"#utility.yul\":4304:4394   */\n      mstore\n        /* \"#utility.yul\":4428:4434   */\n      0x65726f2e00000000000000000000000000000000000000000000000000000000\n        /* \"#utility.yul\":4423:4425   */\n      0x20\n        /* \"#utility.yul\":4415:4421   */\n      dup3\n        /* \"#utility.yul\":4411:4426   */\n      add\n        /* \"#utility.yul\":4404:4435   */\n      mstore\n        /* \"#utility.yul\":4187:4442   */\n      pop\n      jump\t// out\n        /* \"#utility.yul\":4448:4814   */\n    tag_45:\n        /* \"#utility.yul\":4590:4593   */\n      0x00\n        /* \"#utility.yul\":4611:4678   */\n      tag_85\n        /* \"#utility.yul\":4675:4677   */\n      0x24\n        /* \"#utility.yul\":4670:4673   */\n      dup4\n        /* \"#utility.yul\":4611:4678   */\n      tag_39\n      jump\t// in\n    tag_85:\n        /* \"#utility.yul\":4604:4678   */\n      swap2\n      pop\n        /* \"#utility.yul\":4687:4780   */\n      tag_86\n        /* \"#utility.yul\":4776:4779   */\n      dup3\n        /* \"#utility.yul\":4687:4780   */\n      tag_44\n      jump\t// in\n    tag_86:\n        /* \"#utility.yul\":4805:4807   */\n      0x40\n        /* \"#utility.yul\":4800:4803   */\n      dup3\n        /* \"#utility.yul\":4796:4808   */\n      add\n        /* \"#utility.yul\":4789:4808   */\n      swap1\n      pop\n        /* \"#utility.yul\":4448:4814   */\n      swap2\n      swap1\n      pop\n      jump\t// out\n        /* \"#utility.yul\":4820:5349   */\n    tag_24:\n        /* \"#utility.yul\":5014:5018   */\n      0x00\n        /* \"#utility.yul\":5052:5054   */\n      0x40\n        /* \"#utility.yul\":5041:5050   */\n      dup3\n        /* \"#utility.yul\":5037:5055   */\n      add\n        /* \"#utility.yul\":5029:5055   */\n      swap1\n      pop\n        /* \"#utility.yul\":5065:5136   */\n      tag_88\n        /* \"#utility.yul\":5133:5134   */\n      0x00\n        /* \"#utility.yul\":5122:5131   */\n      dup4\n        /* \"#utility.yul\":5118:5135   */\n      add\n        /* \"#utility.yul\":5109:5115   */\n      dup5\n        /* \"#utility.yul\":5065:5136   */\n      tag_38\n      jump\t// in\n    tag_88:\n        /* \"#utility.yul\":5183:5192   */\n      dup2\n        /* \"#utility.yul\":5177:5181   */\n      dup2\n        /* \"#utility.yul\":5173:5193   */\n      sub\n        /* \"#utility.yul\":5168:5170   */\n      0x20\n        /* \"#utility.yul\":5157:5166   */\n      dup4\n        /* \"#utility.yul\":5153:5171   */\n      add\n        /* \"#utility.yul\":5146:5194   */\n      mstore\n        /* \"#utility.yul\":5211:5342   */\n      tag_89\n        /* \"#utility.yul\":5337:5341   */\n      dup2\n        /* \"#utility.yul\":5211:5342   */\n      tag_45\n      jump\t// in\n    tag_89:\n        /* \"#utility.yul\":5203:5342   */\n      swap1\n      pop\n        /* \"#utility.yul\":4820:5349   */\n      swap3\n      swap2\n      pop\n      pop\n      jump\t// out\n        /* \"#utility.yul\":5355:5535   */\n    tag_46:\n        /* \"#utility.yul\":5403:5480   */\n      0x4e487b7100000000000000000000000000000000000000000000000000000000\n        /* \"#utility.yul\":5400:5401   */\n      0x00\n        /* \"#utility.yul\":5393:5481   */\n      mstore\n        /* \"#utility.yul\":5500:5504   */\n      0x11\n        /* \"#utility.yul\":5497:5498   */\n      0x04\n        /* \"#utility.yul\":5490:5505   */\n      mstore\n        /* \"#utility.yul\":5524:5528   */\n      0x24\n        /* \"#utility.yul\":5521:5522   */\n      0x00\n        /* \"#utility.yul\":5514:5529   */\n      revert\n        /* \"#utility.yul\":5541:5951   */\n    tag_26:\n        /* \"#utility.yul\":5581:5588   */\n      0x00\n        /* \"#utility.yul\":5604:5624   */\n      tag_92\n        /* \"#utility.yul\":5622:5623   */\n      dup3\n        /* \"#utility.yul\":5604:5624   */\n      tag_35\n      jump\t// in\n    tag_92:\n        /* \"#utility.yul\":5599:5624   */\n      swap2\n      pop\n        /* \"#utility.yul\":5638:5658   */\n      tag_93\n        /* \"#utility.yul\":5656:5657   */\n      dup4\n        /* \"#utility.yul\":5638:5658   */\n      tag_35\n      jump\t// in\n    tag_93:\n        /* \"#utility.yul\":5633:5658   */\n      swap3\n      pop\n        /* \"#utility.yul\":5693:5694   */\n      dup3\n        /* \"#utility.yul\":5690:5691   */\n      dup3\n        /* \"#utility.yul\":5686:5695   */\n      mul\n        /* \"#utility.yul\":5715:5745   */\n      tag_94\n        /* \"#utility.yul\":5733:5744   */\n      dup2\n        /* \"#utility.yul\":5715:5745   */\n      tag_35\n      jump\t// in\n    tag_94:\n        /* \"#utility.yul\":5704:5745   */\n      swap2\n      pop\n        /* \"#utility.yul\":5894:5895   */\n      dup3\n        /* \"#utility.yul\":5885:5892   */\n      dup3\n        /* \"#utility.yul\":5881:5896   */\n      div\n        /* \"#utility.yul\":5878:5879   */\n      dup5\n        /* \"#utility.yul\":5875:5897   */\n      eq\n        /* \"#utility.yul\":5855:5856   */\n      dup4\n        /* \"#utility.yul\":5848:5857   */\n      iszero\n        /* \"#utility.yul\":5828:5911   */\n      or\n        /* \"#utility.yul\":5805:5944   */\n      tag_95\n      jumpi\n        /* \"#utility.yul\":5924:5942   */\n      tag_96\n      tag_46\n      jump\t// in\n    tag_96:\n        /* \"#utility.yul\":5805:5944   */\n    tag_95:\n        /* \"#utility.yul\":5589:5951   */\n      pop\n        /* \"#utility.yul\":5541:5951   */\n      swap3\n      swap2\n      pop\n      pop\n      jump\t// out\n        /* \"#utility.yul\":5957:6137   */\n    tag_47:\n        /* \"#utility.yul\":6005:6082   */\n      0x4e487b7100000000000000000000000000000000000000000000000000000000\n        /* \"#utility.yul\":6002:6003   */\n      0x00\n        /* \"#utility.yul\":5995:6083   */\n      mstore\n        /* \"#utility.yul\":6102:6106   */\n      0x12\n        /* \"#utility.yul\":6099:6100   */\n      0x04\n        /* \"#utility.yul\":6092:6107   */\n      mstore\n        /* \"#utility.yul\":6126:6130   */\n      0x24\n        /* \"#utility.yul\":6123:6124   */\n      0x00\n        /* \"#utility.yul\":6116:6131   */\n      revert\n        /* \"#utility.yul\":6143:6328   */\n    tag_29:\n        /* \"#utility.yul\":6183:6184   */\n      0x00\n        /* \"#utility.yul\":6200:6220   */\n      tag_99\n        /* \"#utility.yul\":6218:6219   */\n      dup3\n        /* \"#utility.yul\":6200:6220   */\n      tag_35\n      jump\t// in\n    tag_99:\n        /* \"#utility.yul\":6195:6220   */\n      swap2\n      pop\n        /* \"#utility.yul\":6234:6254   */\n      tag_100\n        /* \"#utility.yul\":6252:6253   */\n      dup4\n        /* \"#utility.yul\":6234:6254   */\n      tag_35\n      jump\t// in\n    tag_100:\n        /* \"#utility.yul\":6229:6254   */\n      swap3\n      pop\n        /* \"#utility.yul\":6273:6274   */\n      dup3\n        /* \"#utility.yul\":6263:6298   */\n      tag_101\n      jumpi\n        /* \"#utility.yul\":6278:6296   */\n      tag_102\n      tag_47\n      jump\t// in\n    tag_102:\n        /* \"#utility.yul\":6263:6298   */\n    tag_101:\n        /* \"#utility.yul\":6320:6321   */\n      dup3\n        /* \"#utility.yul\":6317:6318   */\n      dup3\n        /* \"#utility.yul\":6313:6322   */\n      div\n        /* \"#utility.yul\":6308:6322   */\n      swap1\n      pop\n        /* \"#utility.yul\":6143:6328   */\n      swap3\n      swap2\n      pop\n      pop\n      jump\t// out\n        /* \"#utility.yul\":6334:6525   */\n    tag_31:\n        /* \"#utility.yul\":6374:6377   */\n      0x00\n        /* \"#utility.yul\":6393:6413   */\n      tag_104\n        /* \"#utility.yul\":6411:6412   */\n      dup3\n        /* \"#utility.yul\":6393:6413   */\n      tag_35\n      jump\t// in\n    tag_104:\n        /* \"#utility.yul\":6388:6413   */\n      swap2\n      pop\n        /* \"#utility.yul\":6427:6447   */\n      tag_105\n        /* \"#utility.yul\":6445:6446   */\n      dup4\n        /* \"#utility.yul\":6427:6447   */\n      tag_35\n      jump\t// in\n    tag_105:\n        /* \"#utility.yul\":6422:6447   */\n      swap3\n      pop\n        /* \"#utility.yul\":6470:6471   */\n      dup3\n        /* \"#utility.yul\":6467:6468   */\n      dup3\n        /* \"#utility.yul\":6463:6472   */\n      add\n        /* \"#utility.yul\":6456:6472   */\n      swap1\n      pop\n        /* \"#utility.yul\":6491:6494   */\n      dup1\n        /* \"#utility.yul\":6488:6489   */\n      dup3\n        /* \"#utility.yul\":6485:6495   */\n      gt\n        /* \"#utility.yul\":6482:6518   */\n      iszero\n      tag_106\n      jumpi\n        /* \"#utility.yul\":6498:6516   */\n      tag_107\n      tag_46\n      jump\t// in\n    tag_107:\n        /* \"#utility.yul\":6482:6518   */\n    tag_106:\n        /* \"#utility.yul\":6334:6525   */\n      swap3\n      swap2\n      pop\n      pop\n      jump\t// out\n\n    auxdata: 0xa2646970667358221220e759368546942d52ec69e3d4e001d576f66a14ec43ff3dcd76ee95a1afa5535664736f6c634300081c0033\n}\n",
				"bytecode": {
					"linkReferences": {},
					"object": "6080604052348015600e575f5ffd5b506105788061001c5f395ff3fe608060405234801561000f575f5ffd5b5060043610610034575f3560e01c806305e1bd8c146100385780632ddbd13a14610068575b5f5ffd5b610052600480360381019061004d91906101e8565b610086565b60405161005f9190610247565b60405180910390f35b6100706101ac565b60405161007d9190610247565b60405180910390f35b5f60018410156100d0577fdf76322bf7054ef3fbb4db9444ea56645b3acc2aad8cafc25282f3138f2f921b846040516100bf91906102e0565b60405180910390a15f5490506101a5565b5f831180156100df5750606583105b15610124577fdf76322bf7054ef3fbb4db9444ea56645b3acc2aad8cafc25282f3138f2f921b84604051610113919061037c565b60405180910390a15f5490506101a5565b600182101561016d577fdf76322bf7054ef3fbb4db9444ea56645b3acc2aad8cafc25282f3138f2f921b8460405161015c9190610418565b60405180910390a15f5490506101a5565b606482848661017c9190610471565b6101869190610471565b61019091906104df565b8461019b919061050f565b5f819055505f5490505b9392505050565b5f5481565b5f5ffd5b5f819050919050565b6101c7816101b5565b81146101d1575f5ffd5b50565b5f813590506101e2816101be565b92915050565b5f5f5f606084860312156101ff576101fe6101b1565b5b5f61020c868287016101d4565b935050602061021d868287016101d4565b925050604061022e868287016101d4565b9150509250925092565b610241816101b5565b82525050565b5f60208201905061025a5f830184610238565b92915050565b5f82825260208201905092915050565b7f4c6f616e20225072696e636970616c222073686f756c642062696767657220745f8201527f68656e207a65726f2e0000000000000000000000000000000000000000000000602082015250565b5f6102ca602983610260565b91506102d582610270565b604082019050919050565b5f6040820190506102f35f830184610238565b8181036020830152610304816102be565b905092915050565b7f4c6f616e202252617465222073686f756c64206265206265747765656e2031205f8201527f616e64203130302e000000000000000000000000000000000000000000000000602082015250565b5f610366602883610260565b91506103718261030c565b604082019050919050565b5f60408201905061038f5f830184610238565b81810360208301526103a08161035a565b905092915050565b7f4c6f616e202259656172222073686f756c6420626967676572207468656e207a5f8201527f65726f2e00000000000000000000000000000000000000000000000000000000602082015250565b5f610402602483610260565b915061040d826103a8565b604082019050919050565b5f60408201905061042b5f830184610238565b818103602083015261043c816103f6565b905092915050565b7f4e487b71000000000000000000000000000000000000000000000000000000005f52601160045260245ffd5b5f61047b826101b5565b9150610486836101b5565b9250828202610494816101b5565b915082820484148315176104ab576104aa610444565b5b5092915050565b7f4e487b71000000000000000000000000000000000000000000000000000000005f52601260045260245ffd5b5f6104e9826101b5565b91506104f4836101b5565b925082610504576105036104b2565b5b828204905092915050565b5f610519826101b5565b9150610524836101b5565b925082820190508082111561053c5761053b610444565b5b9291505056fea2646970667358221220e759368546942d52ec69e3d4e001d576f66a14ec43ff3dcd76ee95a1afa5535664736f6c634300081c0033",
					"opcodes": "PUSH1 0x80 PUSH1 0x40 MSTORE CALLVALUE DUP1 ISZERO PUSH1 0xE JUMPI PUSH0 PUSH0 REVERT JUMPDEST POP PUSH2 0x578 DUP1 PUSH2 0x1C PUSH0 CODECOPY PUSH0 RETURN INVALID PUSH1 0x80 PUSH1 0x40 MSTORE CALLVALUE DUP1 ISZERO PUSH2 0xF JUMPI PUSH0 PUSH0 REVERT JUMPDEST POP PUSH1 0x4 CALLDATASIZE LT PUSH2 0x34 JUMPI PUSH0 CALLDATALOAD PUSH1 0xE0 SHR DUP1 PUSH4 0x5E1BD8C EQ PUSH2 0x38 JUMPI DUP1 PUSH4 0x2DDBD13A EQ PUSH2 0x68 JUMPI JUMPDEST PUSH0 PUSH0 REVERT JUMPDEST PUSH2 0x52 PUSH1 0x4 DUP1 CALLDATASIZE SUB DUP2 ADD SWAP1 PUSH2 0x4D SWAP2 SWAP1 PUSH2 0x1E8 JUMP JUMPDEST PUSH2 0x86 JUMP JUMPDEST PUSH1 0x40 MLOAD PUSH2 0x5F SWAP2 SWAP1 PUSH2 0x247 JUMP JUMPDEST PUSH1 0x40 MLOAD DUP1 SWAP2 SUB SWAP1 RETURN JUMPDEST PUSH2 0x70 PUSH2 0x1AC JUMP JUMPDEST PUSH1 0x40 MLOAD PUSH2 0x7D SWAP2 SWAP1 PUSH2 0x247 JUMP JUMPDEST PUSH1 0x40 MLOAD DUP1 SWAP2 SUB SWAP1 RETURN JUMPDEST PUSH0 PUSH1 0x1 DUP5 LT ISZERO PUSH2 0xD0 JUMPI PUSH32 0xDF76322BF7054EF3FBB4DB9444EA56645B3ACC2AAD8CAFC25282F3138F2F921B DUP5 PUSH1 0x40 MLOAD PUSH2 0xBF SWAP2 SWAP1 PUSH2 0x2E0 JUMP JUMPDEST PUSH1 0x40 MLOAD DUP1 SWAP2 SUB SWAP1 LOG1 PUSH0 SLOAD SWAP1 POP PUSH2 0x1A5 JUMP JUMPDEST PUSH0 DUP4 GT DUP1 ISZERO PUSH2 0xDF JUMPI POP PUSH1 0x65 DUP4 LT JUMPDEST ISZERO PUSH2 0x124 JUMPI PUSH32 0xDF76322BF7054EF3FBB4DB9444EA56645B3ACC2AAD8CAFC25282F3138F2F921B DUP5 PUSH1 0x40 MLOAD PUSH2 0x113 SWAP2 SWAP1 PUSH2 0x37C JUMP JUMPDEST PUSH1 0x40 MLOAD DUP1 SWAP2 SUB SWAP1 LOG1 PUSH0 SLOAD SWAP1 POP PUSH2 0x1A5 JUMP JUMPDEST PUSH1 0x1 DUP3 LT ISZERO PUSH2 0x16D JUMPI PUSH32 0xDF76322BF7054EF3FBB4DB9444EA56645B3ACC2AAD8CAFC25282F3138F2F921B DUP5 PUSH1 0x40 MLOAD PUSH2 0x15C SWAP2 SWAP1 PUSH2 0x418 JUMP JUMPDEST PUSH1 0x40 MLOAD DUP1 SWAP2 SUB SWAP1 LOG1 PUSH0 SLOAD SWAP1 POP PUSH2 0x1A5 JUMP JUMPDEST PUSH1 0x64 DUP3 DUP5 DUP7 PUSH2 0x17C SWAP2 SWAP1 PUSH2 0x471 JUMP JUMPDEST PUSH2 0x186 SWAP2 SWAP1 PUSH2 0x471 JUMP JUMPDEST PUSH2 0x190 SWAP2 SWAP1 PUSH2 0x4DF JUMP JUMPDEST DUP5 PUSH2 0x19B SWAP2 SWAP1 PUSH2 0x50F JUMP JUMPDEST PUSH0 DUP2 SWAP1 SSTORE POP PUSH0 SLOAD SWAP1 POP JUMPDEST SWAP4 SWAP3 POP POP POP JUMP JUMPDEST PUSH0 SLOAD DUP2 JUMP JUMPDEST PUSH0 PUSH0 REVERT JUMPDEST PUSH0 DUP2 SWAP1 POP SWAP2 SWAP1 POP JUMP JUMPDEST PUSH2 0x1C7 DUP2 PUSH2 0x1B5 JUMP JUMPDEST DUP2 EQ PUSH2 0x1D1 JUMPI PUSH0 PUSH0 REVERT JUMPDEST POP JUMP JUMPDEST PUSH0 DUP2 CALLDATALOAD SWAP1 POP PUSH2 0x1E2 DUP2 PUSH2 0x1BE JUMP JUMPDEST SWAP3 SWAP2 POP POP JUMP JUMPDEST PUSH0 PUSH0 PUSH0 PUSH1 0x60 DUP5 DUP7 SUB SLT ISZERO PUSH2 0x1FF JUMPI PUSH2 0x1FE PUSH2 0x1B1 JUMP JUMPDEST JUMPDEST PUSH0 PUSH2 0x20C DUP7 DUP3 DUP8 ADD PUSH2 0x1D4 JUMP JUMPDEST SWAP4 POP POP PUSH1 0x20 PUSH2 0x21D DUP7 DUP3 DUP8 ADD PUSH2 0x1D4 JUMP JUMPDEST SWAP3 POP POP PUSH1 0x40 PUSH2 0x22E DUP7 DUP3 DUP8 ADD PUSH2 0x1D4 JUMP JUMPDEST SWAP2 POP POP SWAP3 POP SWAP3 POP SWAP3 JUMP JUMPDEST PUSH2 0x241 DUP2 PUSH2 0x1B5 JUMP JUMPDEST DUP3 MSTORE POP POP JUMP JUMPDEST PUSH0 PUSH1 0x20 DUP3 ADD SWAP1 POP PUSH2 0x25A PUSH0 DUP4 ADD DUP5 PUSH2 0x238 JUMP JUMPDEST SWAP3 SWAP2 POP POP JUMP JUMPDEST PUSH0 DUP3 DUP3 MSTORE PUSH1 0x20 DUP3 ADD SWAP1 POP SWAP3 SWAP2 POP POP JUMP JUMPDEST PUSH32 0x4C6F616E20225072696E636970616C222073686F756C64206269676765722074 PUSH0 DUP3 ADD MSTORE PUSH32 0x68656E207A65726F2E0000000000000000000000000000000000000000000000 PUSH1 0x20 DUP3 ADD MSTORE POP JUMP JUMPDEST PUSH0 PUSH2 0x2CA PUSH1 0x29 DUP4 PUSH2 0x260 JUMP JUMPDEST SWAP2 POP PUSH2 0x2D5 DUP3 PUSH2 0x270 JUMP JUMPDEST PUSH1 0x40 DUP3 ADD SWAP1 POP SWAP2 SWAP1 POP JUMP JUMPDEST PUSH0 PUSH1 0x40 DUP3 ADD SWAP1 POP PUSH2 0x2F3 PUSH0 DUP4 ADD DUP5 PUSH2 0x238 JUMP JUMPDEST DUP2 DUP2 SUB PUSH1 0x20 DUP4 ADD MSTORE PUSH2 0x304 DUP2 PUSH2 0x2BE JUMP JUMPDEST SWAP1 POP SWAP3 SWAP2 POP POP JUMP JUMPDEST PUSH32 0x4C6F616E202252617465222073686F756C64206265206265747765656E203120 PUSH0 DUP3 ADD MSTORE PUSH32 0x616E64203130302E000000000000000000000000000000000000000000000000 PUSH1 0x20 DUP3 ADD MSTORE POP JUMP JUMPDEST PUSH0 PUSH2 0x366 PUSH1 0x28 DUP4 PUSH2 0x260 JUMP JUMPDEST SWAP2 POP PUSH2 0x371 DUP3 PUSH2 0x30C JUMP JUMPDEST PUSH1 0x40 DUP3 ADD SWAP1 POP SWAP2 SWAP1 POP JUMP JUMPDEST PUSH0 PUSH1 0x40 DUP3 ADD SWAP1 POP PUSH2 0x38F PUSH0 DUP4 ADD DUP5 PUSH2 0x238 JUMP JUMPDEST DUP2 DUP2 SUB PUSH1 0x20 DUP4 ADD MSTORE PUSH2 0x3A0 DUP2 PUSH2 0x35A JUMP JUMPDEST SWAP1 POP SWAP3 SWAP2 POP POP JUMP JUMPDEST PUSH32 0x4C6F616E202259656172222073686F756C6420626967676572207468656E207A PUSH0 DUP3 ADD MSTORE PUSH32 0x65726F2E00000000000000000000000000000000000000000000000000000000 PUSH1 0x20 DUP3 ADD MSTORE POP JUMP JUMPDEST PUSH0 PUSH2 0x402 PUSH1 0x24 DUP4 PUSH2 0x260 JUMP JUMPDEST SWAP2 POP PUSH2 0x40D DUP3 PUSH2 0x3A8 JUMP JUMPDEST PUSH1 0x40 DUP3 ADD SWAP1 POP SWAP2 SWAP1 POP JUMP JUMPDEST PUSH0 PUSH1 0x40 DUP3 ADD SWAP1 POP PUSH2 0x42B PUSH0 DUP4 ADD DUP5 PUSH2 0x238 JUMP JUMPDEST DUP2 DUP2 SUB PUSH1 0x20 DUP4 ADD MSTORE PUSH2 0x43C DUP2 PUSH2 0x3F6 JUMP JUMPDEST SWAP1 POP SWAP3 SWAP2 POP POP JUMP JUMPDEST PUSH32 0x4E487B7100000000000000000000000000000000000000000000000000000000 PUSH0 MSTORE PUSH1 0x11 PUSH1 0x4 MSTORE PUSH1 0x24 PUSH0 REVERT JUMPDEST PUSH0 PUSH2 0x47B DUP3 PUSH2 0x1B5 JUMP JUMPDEST SWAP2 POP PUSH2 0x486 DUP4 PUSH2 0x1B5 JUMP JUMPDEST SWAP3 POP DUP3 DUP3 MUL PUSH2 0x494 DUP2 PUSH2 0x1B5 JUMP JUMPDEST SWAP2 POP DUP3 DUP3 DIV DUP5 EQ DUP4 ISZERO OR PUSH2 0x4AB JUMPI PUSH2 0x4AA PUSH2 0x444 JUMP JUMPDEST JUMPDEST POP SWAP3 SWAP2 POP POP JUMP JUMPDEST PUSH32 0x4E487B7100000000000000000000000000000000000000000000000000000000 PUSH0 MSTORE PUSH1 0x12 PUSH1 0x4 MSTORE PUSH1 0x24 PUSH0 REVERT JUMPDEST PUSH0 PUSH2 0x4E9 DUP3 PUSH2 0x1B5 JUMP JUMPDEST SWAP2 POP PUSH2 0x4F4 DUP4 PUSH2 0x1B5 JUMP JUMPDEST SWAP3 POP DUP3 PUSH2 0x504 JUMPI PUSH2 0x503 PUSH2 0x4B2 JUMP JUMPDEST JUMPDEST DUP3 DUP3 DIV SWAP1 POP SWAP3 SWAP2 POP POP JUMP JUMPDEST PUSH0 PUSH2 0x519 DUP3 PUSH2 0x1B5 JUMP JUMPDEST SWAP2 POP PUSH2 0x524 DUP4 PUSH2 0x1B5 JUMP JUMPDEST SWAP3 POP DUP3 DUP3 ADD SWAP1 POP DUP1 DUP3 GT ISZERO PUSH2 0x53C JUMPI PUSH2 0x53B PUSH2 0x444 JUMP JUMPDEST JUMPDEST SWAP3 SWAP2 POP POP JUMP INVALID LOG2 PUSH5 0x6970667358 0x22 SLT KECCAK256 0xE7 MSIZE CALLDATASIZE DUP6 CHAINID SWAP5 0x2D MSTORE 0xEC PUSH10 0xE3D4E001D576F66A14EC NUMBER SELFDESTRUCT RETURNDATASIZE 0xCD PUSH23 0xEE95A1AFA5535664736F6C634300081C00330000000000 "
				},
				"gasEstimates": {
					"creation": {
						"codeDepositCost": "280000",
						"executionCost": "316",
						"totalCost": "280316"
					},
					"external": {
						"calculateInterest(uint256,uint256,uint256)": "infinite",
						"total()": "2424"
					}
				},
				"methodIdentifiers": {
					"calculateInterest(uint256,uint256,uint256)": "05e1bd8c",
					"total()": "2ddbd13a"
				}
			},
			"storageLayout": {
				"storage": [
					{
						"astId": 3,
						"contract": "CalculatorLogError.sol:Calculator",
						"label": "total",
						"offset": 0,
						"slot": "0",
						"type": "t_uint256"
					}
				],
				"types": {
					"t_uint256": {
						"encoding": "inplace",
						"label": "uint256",
						"numberOfBytes": "32"
					}
				}
			},
			"userdoc": {
				"kind": "user",
				"methods": {},
				"version": 1
			}
		}
	}
}