{
	"CompoundInterest.sol": {
		"CompoundInterest": {
			"abi": [
				{
					"anonymous": false,
					"inputs": [
						{
							"indexed": false,
							"internalType": "uint256",
							"name": "input",
							"type": "uint256"
						},
						{
							"indexed": false,
							"internalType": "string",
							"name": "reason",
							"type": "string"
						}
					],
					"name": "InputRejected",
					"type": "event"
				},
				{
					"inputs": [
						{
							"internalType": "uint256",
							"name": "principal",
							"type": "uint256"
						},
						{
							"internalType": "uint256",
							"name": "rate",
							"type": "uint256"
						},
						{
							"internalType": "uint256",
							"name": "year",
							"type": "uint256"
						}
					],
					"name": "calculateCompoundInterest",
					"outputs": [
						{
							"internalType": "uint256",
							"name": "",
							"type": "uint256"
						}
					],
					"stateMutability": "nonpayable",
					"type": "function"
				},
				{
					"inputs": [],
					"name": "total",
					"outputs": [
						{
							"internalType": "uint256",
							"name": "",
							"type": "uint256"
						}
					],
					"stateMutability": "view",
					"type": "function"
				}
			],
			"devdoc": {
				"kind": "dev",
				"methods": {},
				"version": 1
			},
			"evm": {
				"assembly": "    /* \"CompoundInterest.sol\":62:627  contract CompoundInterest {... */\n  mstore(0x40, 0x80)\n  callvalue\n  dup1\n  iszero\n  tag_1\n  jumpi\n  revert(0x00, 0x00)\ntag_1:\n  pop\n  dataSize(sub_0)\n  dup1\n  dataOffset(sub_0)\n  0x00\n  codecopy\n  0x00\n  return\nstop\n\nsub_0: assembly {\n        /* \"CompoundInterest.sol\":62:627  contract CompoundInterest {... */\n      mstore(0x40, 0x80)\n      callvalue\n      dup1\n      iszero\n      tag_1\n      jumpi\n      revert(0x00, 0x00)\n    tag_1:\n      pop\n      jumpi(tag_2, lt(calldatasize, 0x04))\n      shr(0xe0, calldataload(0x00))\n      dup1\n      0x2ddbd13a\n      eq\n      tag_3\n      jumpi\n      dup1\n      0xe088abdd\n      eq\n      tag_4\n      jumpi\n    tag_2:\n      revert(0x00, 0x00)\n        /* \"CompoundInterest.sol\":95:115  uint256 public total */\n    tag_3:\n      tag_5\n      tag_6\n      jump\t// in\n    tag_5:\n      mload(0x40)\n      tag_7\n      swap2\n      swap1\n      tag_8\n      jump\t// in\n    tag_7:\n      mload(0x40)\n      dup1\n      swap2\n      sub\n      swap1\n      return\n        /* \"CompoundInterest.sol\":182:624  function calculateCompoundInterest(uint256 principal, uint256 rate, uint256 year) public returns (uint256) {... */\n    tag_4:\n      tag_9\n      0x04\n      dup1\n      calldatasize\n      sub\n      dup2\n      add\n      swap1\n      tag_10\n      swap2\n      swap1\n      tag_11\n      jump\t// in\n    tag_10:\n      tag_12\n      jump\t// in\n    tag_9:\n      mload(0x40)\n      tag_13\n      swap2\n      swap1\n      tag_8\n      jump\t// in\n    tag_13:\n      mload(0x40)\n      dup1\n      swap2\n      sub\n      swap1\n      return\n        /* \"CompoundInterest.sol\":95:115  uint256 public total */\n    tag_6:\n      sload(0x00)\n      dup2\n      jump\t// out\n        /* \"CompoundInterest.sol\":182:624  function calculateCompoundInterest(uint256 principal, uint256 rate, uint256 year) public returns (uint256) {... */\n    tag_12:\n        /* \"CompoundInterest.sol\":280:287  uint256 */\n      0x00\n        /* \"CompoundInterest.sol\":320:321  0 */\n      0x00\n        /* \"CompoundInterest.sol\":308:317  principal */\n      dup5\n        /* \"CompoundInterest.sol\":308:321  principal > 0 */\n      gt\n        /* \"CompoundInterest.sol\":300:369  require(principal > 0, \"Loan \\\"Principal\\\" should bigger then zero.\") */\n      tag_15\n      jumpi\n      mload(0x40)\n      0x08c379a000000000000000000000000000000000000000000000000000000000\n      dup2\n      mstore\n      0x04\n      add\n      tag_16\n      swap1\n      tag_17\n      jump\t// in\n    tag_16:\n      mload(0x40)\n      dup1\n      swap2\n      sub\n      swap1\n      revert\n    tag_15:\n        /* \"CompoundInterest.sol\":395:396  0 */\n      0x00\n        /* \"CompoundInterest.sol\":388:392  rate */\n      dup4\n        /* \"CompoundInterest.sol\":388:396  rate > 0 */\n      gt\n        /* \"CompoundInterest.sol\":388:410  rate > 0 && rate < 101 */\n      dup1\n      iszero\n      tag_18\n      jumpi\n      pop\n        /* \"CompoundInterest.sol\":407:410  101 */\n      0x65\n        /* \"CompoundInterest.sol\":400:404  rate */\n      dup4\n        /* \"CompoundInterest.sol\":400:410  rate < 101 */\n      lt\n        /* \"CompoundInterest.sol\":388:410  rate > 0 && rate < 101 */\n    tag_18:\n        /* \"CompoundInterest.sol\":380:457  require(rate > 0 && rate < 101, \"Loan \\\"Rate\\\" should be between 1 and 100.\") */\n      tag_19\n      jumpi\n      mload(0x40)\n      0x08c379a000000000000000000000000000000000000000000000000000000000\n      dup2\n      mstore\n      0x04\n      add\n      tag_20\n      swap1\n      tag_21\n      jump\t// in\n    tag_20:\n      mload(0x40)\n      dup1\n      swap2\n      sub\n      swap1\n      revert\n    tag_19:\n        /* \"CompoundInterest.sol\":483:484  0 */\n      0x00\n        /* \"CompoundInterest.sol\":476:480  year */\n      dup3\n        /* \"CompoundInterest.sol\":476:484  year > 0 */\n      gt\n        /* \"CompoundInterest.sol\":468:527  require(year > 0, \"Loan \\\"Year\\\" should bigger then zero.\") */\n      tag_22\n      jumpi\n      mload(0x40)\n      0x08c379a000000000000000000000000000000000000000000000000000000000\n      dup2\n      mstore\n      0x04\n      add\n      tag_23\n      swap1\n      tag_24\n      jump\t// in\n    tag_23:\n      mload(0x40)\n      dup1\n      swap2\n      sub\n      swap1\n      revert\n    tag_22:\n        /* \"CompoundInterest.sol\":588:591  100 */\n      0x64\n        /* \"CompoundInterest.sol\":580:584  year */\n      dup3\n        /* \"CompoundInterest.sol\":573:577  rate */\n      dup5\n        /* \"CompoundInterest.sol\":561:570  principal */\n      dup7\n        /* \"CompoundInterest.sol\":561:577  principal * rate */\n      tag_25\n      swap2\n      swap1\n      tag_26\n      jump\t// in\n    tag_25:\n        /* \"CompoundInterest.sol\":561:584  principal * rate * year */\n      tag_27\n      swap2\n      swap1\n      tag_26\n      jump\t// in\n    tag_27:\n        /* \"CompoundInterest.sol\":560:591  (principal * rate * year) / 100 */\n      tag_28\n      swap2\n      swap1\n      tag_29\n      jump\t// in\n    tag_28:\n        /* \"CompoundInterest.sol\":548:557  principal */\n      dup5\n        /* \"CompoundInterest.sol\":548:591  principal + (principal * rate * year) / 100 */\n      tag_30\n      swap2\n      swap1\n      tag_31\n      jump\t// in\n    tag_30:\n        /* \"CompoundInterest.sol\":540:545  total */\n      0x00\n        /* \"CompoundInterest.sol\":540:591  total = principal + (principal * rate * year) / 100 */\n      dup2\n      swap1\n      sstore\n      pop\n        /* \"CompoundInterest.sol\":611:616  total */\n      sload(0x00)\n        /* \"CompoundInterest.sol\":604:616  return total */\n      swap1\n      pop\n        /* \"CompoundInterest.sol\":182:624  function calculateCompoundInterest(uint256 principal, uint256 rate, uint256 year) public returns (uint256) {... */\n      swap4\n      swap3\n      pop\n      pop\n      pop\n      jump\t// out\n        /* \"#utility.yul\":7:84   */\n    tag_32:\n        /* \"#utility.yul\":44:51   */\n      0x00\n        /* \"#utility.yul\":73:78   */\n      dup2\n        /* \"#utility.yul\":62:78   */\n      swap1\n      pop\n        /* \"#utility.yul\":7:84   */\n      swap2\n      swap1\n      pop\n      jump\t// out\n        /* \"#utility.yul\":90:208   */\n    tag_33:\n        /* \"#utility.yul\":177:201   */\n      tag_51\n        /* \"#utility.yul\":195:200   */\n      dup2\n        /* \"#utility.yul\":177:201   */\n      tag_32\n      jump\t// in\n    tag_51:\n        /* \"#utility.yul\":172:175   */\n      dup3\n        /* \"#utility.yul\":165:202   */\n      mstore\n        /* \"#utility.yul\":90:208   */\n      pop\n      pop\n      jump\t// out\n        /* \"#utility.yul\":214:436   */\n    tag_8:\n        /* \"#utility.yul\":307:311   */\n      0x00\n        /* \"#utility.yul\":345:347   */\n      0x20\n        /* \"#utility.yul\":334:343   */\n      dup3\n        /* \"#utility.yul\":330:348   */\n      add\n        /* \"#utility.yul\":322:348   */\n      swap1\n      pop\n        /* \"#utility.yul\":358:429   */\n      tag_53\n        /* \"#utility.yul\":426:427   */\n      0x00\n        /* \"#utility.yul\":415:424   */\n      dup4\n        /* \"#utility.yul\":411:428   */\n      add\n        /* \"#utility.yul\":402:408   */\n      dup5\n        /* \"#utility.yul\":358:429   */\n      tag_33\n      jump\t// in\n    tag_53:\n        /* \"#utility.yul\":214:436   */\n      swap3\n      swap2\n      pop\n      pop\n      jump\t// out\n        /* \"#utility.yul\":523:640   */\n    tag_35:\n        /* \"#utility.yul\":632:633   */\n      0x00\n        /* \"#utility.yul\":629:630   */\n      0x00\n        /* \"#utility.yul\":622:634   */\n      revert\n        /* \"#utility.yul\":769:891   */\n    tag_37:\n        /* \"#utility.yul\":842:866   */\n      tag_58\n        /* \"#utility.yul\":860:865   */\n      dup2\n        /* \"#utility.yul\":842:866   */\n      tag_32\n      jump\t// in\n    tag_58:\n        /* \"#utility.yul\":835:840   */\n      dup2\n        /* \"#utility.yul\":832:867   */\n      eq\n        /* \"#utility.yul\":822:885   */\n      tag_59\n      jumpi\n        /* \"#utility.yul\":881:882   */\n      0x00\n        /* \"#utility.yul\":878:879   */\n      0x00\n        /* \"#utility.yul\":871:883   */\n      revert\n        /* \"#utility.yul\":822:885   */\n    tag_59:\n        /* \"#utility.yul\":769:891   */\n      pop\n      jump\t// out\n        /* \"#utility.yul\":897:1036   */\n    tag_38:\n        /* \"#utility.yul\":943:948   */\n      0x00\n        /* \"#utility.yul\":981:987   */\n      dup2\n        /* \"#utility.yul\":968:988   */\n      calldataload\n        /* \"#utility.yul\":959:988   */\n      swap1\n      pop\n        /* \"#utility.yul\":997:1030   */\n      tag_61\n        /* \"#utility.yul\":1024:1029   */\n      dup2\n        /* \"#utility.yul\":997:1030   */\n      tag_37\n      jump\t// in\n    tag_61:\n        /* \"#utility.yul\":897:1036   */\n      swap3\n      swap2\n      pop\n      pop\n      jump\t// out\n        /* \"#utility.yul\":1042:1661   */\n    tag_11:\n        /* \"#utility.yul\":1119:1125   */\n      0x00\n        /* \"#utility.yul\":1127:1133   */\n      0x00\n        /* \"#utility.yul\":1135:1141   */\n      0x00\n        /* \"#utility.yul\":1184:1186   */\n      0x60\n        /* \"#utility.yul\":1172:1181   */\n      dup5\n        /* \"#utility.yul\":1163:1170   */\n      dup7\n        /* \"#utility.yul\":1159:1182   */\n      sub\n        /* \"#utility.yul\":1155:1187   */\n      slt\n        /* \"#utility.yul\":1152:1271   */\n      iszero\n      tag_63\n      jumpi\n        /* \"#utility.yul\":1190:1269   */\n      tag_64\n      tag_35\n      jump\t// in\n    tag_64:\n        /* \"#utility.yul\":1152:1271   */\n    tag_63:\n        /* \"#utility.yul\":1310:1311   */\n      0x00\n        /* \"#utility.yul\":1335:1388   */\n      tag_65\n        /* \"#utility.yul\":1380:1387   */\n      dup7\n        /* \"#utility.yul\":1371:1377   */\n      dup3\n        /* \"#utility.yul\":1360:1369   */\n      dup8\n        /* \"#utility.yul\":1356:1378   */\n      add\n        /* \"#utility.yul\":1335:1388   */\n      tag_38\n      jump\t// in\n    tag_65:\n        /* \"#utility.yul\":1325:1388   */\n      swap4\n      pop\n        /* \"#utility.yul\":1281:1398   */\n      pop\n        /* \"#utility.yul\":1437:1439   */\n      0x20\n        /* \"#utility.yul\":1463:1516   */\n      tag_66\n        /* \"#utility.yul\":1508:1515   */\n      dup7\n        /* \"#utility.yul\":1499:1505   */\n      dup3\n        /* \"#utility.yul\":1488:1497   */\n      dup8\n        /* \"#utility.yul\":1484:1506   */\n      add\n        /* \"#utility.yul\":1463:1516   */\n      tag_38\n      jump\t// in\n    tag_66:\n        /* \"#utility.yul\":1453:1516   */\n      swap3\n      pop\n        /* \"#utility.yul\":1408:1526   */\n      pop\n        /* \"#utility.yul\":1565:1567   */\n      0x40\n        /* \"#utility.yul\":1591:1644   */\n      tag_67\n        /* \"#utility.yul\":1636:1643   */\n      dup7\n        /* \"#utility.yul\":1627:1633   */\n      dup3\n        /* \"#utility.yul\":1616:1625   */\n      dup8\n        /* \"#utility.yul\":1612:1634   */\n      add\n        /* \"#utility.yul\":1591:1644   */\n      tag_38\n      jump\t// in\n    tag_67:\n        /* \"#utility.yul\":1581:1644   */\n      swap2\n      pop\n        /* \"#utility.yul\":1536:1654   */\n      pop\n        /* \"#utility.yul\":1042:1661   */\n      swap3\n      pop\n      swap3\n      pop\n      swap3\n      jump\t// out\n        /* \"#utility.yul\":1667:1836   */\n    tag_39:\n        /* \"#utility.yul\":1751:1762   */\n      0x00\n        /* \"#utility.yul\":1785:1791   */\n      dup3\n        /* \"#utility.yul\":1780:1783   */\n      dup3\n        /* \"#utility.yul\":1773:1792   */\n      mstore\n        /* \"#utility.yul\":1825:1829   */\n      0x20\n        /* \"#utility.yul\":1820:1823   */\n      dup3\n        /* \"#utility.yul\":1816:1830   */\n      add\n        /* \"#utility.yul\":1801:1830   */\n      swap1\n      pop\n        /* \"#utility.yul\":1667:1836   */\n      swap3\n      swap2\n      pop\n      pop\n      jump\t// out\n        /* \"#utility.yul\":1842:2102   */\n    tag_40:\n        /* \"#utility.yul\":1982:2048   */\n      0x4c6f616e20225072696e636970616c222073686f756c64206269676765722074\n        /* \"#utility.yul\":1978:1979   */\n      0x00\n        /* \"#utility.yul\":1970:1976   */\n      dup3\n        /* \"#utility.yul\":1966:1980   */\n      add\n        /* \"#utility.yul\":1959:2049   */\n      mstore\n        /* \"#utility.yul\":2083:2094   */\n      0x68656e207a65726f2e0000000000000000000000000000000000000000000000\n        /* \"#utility.yul\":2078:2080   */\n      0x20\n        /* \"#utility.yul\":2070:2076   */\n      dup3\n        /* \"#utility.yul\":2066:2081   */\n      add\n        /* \"#utility.yul\":2059:2095   */\n      mstore\n        /* \"#utility.yul\":1842:2102   */\n      pop\n      jump\t// out\n        /* \"#utility.yul\":2108:2474   */\n    tag_41:\n        /* \"#utility.yul\":2250:2253   */\n      0x00\n        /* \"#utility.yul\":2271:2338   */\n      tag_71\n        /* \"#utility.yul\":2335:2337   */\n      0x29\n        /* \"#utility.yul\":2330:2333   */\n      dup4\n        /* \"#utility.yul\":2271:2338   */\n      tag_39\n      jump\t// in\n    tag_71:\n        /* \"#utility.yul\":2264:2338   */\n      swap2\n      pop\n        /* \"#utility.yul\":2347:2440   */\n      tag_72\n        /* \"#utility.yul\":2436:2439   */\n      dup3\n        /* \"#utility.yul\":2347:2440   */\n      tag_40\n      jump\t// in\n    tag_72:\n        /* \"#utility.yul\":2465:2467   */\n      0x40\n        /* \"#utility.yul\":2460:2463   */\n      dup3\n        /* \"#utility.yul\":2456:2468   */\n      add\n        /* \"#utility.yul\":2449:2468   */\n      swap1\n      pop\n        /* \"#utility.yul\":2108:2474   */\n      swap2\n      swap1\n      pop\n      jump\t// out\n        /* \"#utility.yul\":2480:2899   */\n    tag_17:\n        /* \"#utility.yul\":2646:2650   */\n      0x00\n        /* \"#utility.yul\":2684:2686   */\n      0x20\n        /* \"#utility.yul\":2673:2682   */\n      dup3\n        /* \"#utility.yul\":2669:2687   */\n      add\n        /* \"#utility.yul\":2661:2687   */\n      swap1\n      pop\n        /* \"#utility.yul\":2733:2742   */\n      dup2\n        /* \"#utility.yul\":2727:2731   */\n      dup2\n        /* \"#utility.yul\":2723:2743   */\n      sub\n        /* \"#utility.yul\":2719:2720   */\n      0x00\n        /* \"#utility.yul\":2708:2717   */\n      dup4\n        /* \"#utility.yul\":2704:2721   */\n      add\n        /* \"#utility.yul\":2697:2744   */\n      mstore\n        /* \"#utility.yul\":2761:2892   */\n      tag_74\n        /* \"#utility.yul\":2887:2891   */\n      dup2\n        /* \"#utility.yul\":2761:2892   */\n      tag_41\n      jump\t// in\n    tag_74:\n        /* \"#utility.yul\":2753:2892   */\n      swap1\n      pop\n        /* \"#utility.yul\":2480:2899   */\n      swap2\n      swap1\n      pop\n      jump\t// out\n        /* \"#utility.yul\":2905:3164   */\n    tag_42:\n        /* \"#utility.yul\":3045:3111   */\n      0x4c6f616e202252617465222073686f756c64206265206265747765656e203120\n        /* \"#utility.yul\":3041:3042   */\n      0x00\n        /* \"#utility.yul\":3033:3039   */\n      dup3\n        /* \"#utility.yul\":3029:3043   */\n      add\n        /* \"#utility.yul\":3022:3112   */\n      mstore\n        /* \"#utility.yul\":3146:3156   */\n      0x616e64203130302e000000000000000000000000000000000000000000000000\n        /* \"#utility.yul\":3141:3143   */\n      0x20\n        /* \"#utility.yul\":3133:3139   */\n      dup3\n        /* \"#utility.yul\":3129:3144   */\n      add\n        /* \"#utility.yul\":3122:3157   */\n      mstore\n        /* \"#utility.yul\":2905:3164   */\n      pop\n      jump\t// out\n        /* \"#utility.yul\":3170:3536   */\n    tag_43:\n        /* \"#utility.yul\":3312:3315   */\n      0x00\n        /* \"#utility.yul\":3333:3400   */\n      tag_77\n        /* \"#utility.yul\":3397:3399   */\n      0x28\n        /* \"#utility.yul\":3392:3395   */\n      dup4\n        /* \"#utility.yul\":3333:3400   */\n      tag_39\n      jump\t// in\n    tag_77:\n        /* \"#utility.yul\":3326:3400   */\n      swap2\n      pop\n        /* \"#utility.yul\":3409:3502   */\n      tag_78\n        /* \"#utility.yul\":3498:3501   */\n      dup3\n        /* \"#utility.yul\":3409:3502   */\n      tag_42\n      jump\t// in\n    tag_78:\n        /* \"#utility.yul\":3527:3529   */\n      0x40\n        /* \"#utility.yul\":3522:3525   */\n      dup3\n        /* \"#utility.yul\":3518:3530   */\n      add\n        /* \"#utility.yul\":3511:3530   */\n      swap1\n      pop\n        /* \"#utility.yul\":3170:3536   */\n      swap2\n      swap1\n      pop\n      jump\t// out\n        /* \"#utility.yul\":3542:3961   */\n    tag_21:\n        /* \"#utility.yul\":3708:3712   */\n      0x00\n        /* \"#utility.yul\":3746:3748   */\n      0x20\n        /* \"#utility.yul\":3735:3744   */\n      dup3\n        /* \"#utility.yul\":3731:3749   */\n      add\n        /* \"#utility.yul\":3723:3749   */\n      swap1\n      pop\n        /* \"#utility.yul\":3795:3804   */\n      dup2\n        /* \"#utility.yul\":3789:3793   */\n      dup2\n        /* \"#utility.yul\":3785:3805   */\n      sub\n        /* \"#utility.yul\":3781:3782   */\n      0x00\n        /* \"#utility.yul\":3770:3779   */\n      dup4\n        /* \"#utility.yul\":3766:3783   */\n      add\n        /* \"#utility.yul\":3759:3806   */\n      mstore\n        /* \"#utility.yul\":3823:3954   */\n      tag_80\n        /* \"#utility.yul\":3949:3953   */\n      dup2\n        /* \"#utility.yul\":3823:3954   */\n      tag_43\n      jump\t// in\n    tag_80:\n        /* \"#utility.yul\":3815:3954   */\n      swap1\n      pop\n        /* \"#utility.yul\":3542:3961   */\n      swap2\n      swap1\n      pop\n      jump\t// out\n        /* \"#utility.yul\":3967:4222   */\n    tag_44:\n        /* \"#utility.yul\":4107:4173   */\n      0x4c6f616e202259656172222073686f756c6420626967676572207468656e207a\n        /* \"#utility.yul\":4103:4104   */\n      0x00\n        /* \"#utility.yul\":4095:4101   */\n      dup3\n        /* \"#utility.yul\":4091:4105   */\n      add\n        /* \"#utility.yul\":4084:4174   */\n      mstore\n        /* \"#utility.yul\":4208:4214   */\n      0x65726f2e00000000000000000000000000000000000000000000000000000000\n        /* \"#utility.yul\":4203:4205   */\n      0x20\n        /* \"#utility.yul\":4195:4201   */\n      dup3\n        /* \"#utility.yul\":4191:4206   */\n      add\n        /* \"#utility.yul\":4184:4215   */\n      mstore\n        /* \"#utility.yul\":3967:4222   */\n      pop\n      jump\t// out\n        /* \"#utility.yul\":4228:4594   */\n    tag_45:\n        /* \"#utility.yul\":4370:4373   */\n      0x00\n        /* \"#utility.yul\":4391:4458   */\n      tag_83\n        /* \"#utility.yul\":4455:4457   */\n      0x24\n        /* \"#utility.yul\":4450:4453   */\n      dup4\n        /* \"#utility.yul\":4391:4458   */\n      tag_39\n      jump\t// in\n    tag_83:\n        /* \"#utility.yul\":4384:4458   */\n      swap2\n      pop\n        /* \"#utility.yul\":4467:4560   */\n      tag_84\n        /* \"#utility.yul\":4556:4559   */\n      dup3\n        /* \"#utility.yul\":4467:4560   */\n      tag_44\n      jump\t// in\n    tag_84:\n        /* \"#utility.yul\":4585:4587   */\n      0x40\n        /* \"#utility.yul\":4580:4583   */\n      dup3\n        /* \"#utility.yul\":4576:4588   */\n      add\n        /* \"#utility.yul\":4569:4588   */\n      swap1\n      pop\n        /* \"#utility.yul\":4228:4594   */\n      swap2\n      swap1\n      pop\n      jump\t// out\n        /* \"#utility.yul\":4600:5019   */\n    tag_24:\n        /* \"#utility.yul\":4766:4770   */\n      0x00\n        /* \"#utility.yul\":4804:4806   */\n      0x20\n        /* \"#utility.yul\":4793:4802   */\n      dup3\n        /* \"#utility.yul\":4789:4807   */\n      add\n        /* \"#utility.yul\":4781:4807   */\n      swap1\n      pop\n        /* \"#utility.yul\":4853:4862   */\n      dup2\n        /* \"#utility.yul\":4847:4851   */\n      dup2\n        /* \"#utility.yul\":4843:4863   */\n      sub\n        /* \"#utility.yul\":4839:4840   */\n      0x00\n        /* \"#utility.yul\":4828:4837   */\n      dup4\n        /* \"#utility.yul\":4824:4841   */\n      add\n        /* \"#utility.yul\":4817:4864   */\n      mstore\n        /* \"#utility.yul\":4881:5012   */\n      tag_86\n        /* \"#utility.yul\":5007:5011   */\n      dup2\n        /* \"#utility.yul\":4881:5012   */\n      tag_45\n      jump\t// in\n    tag_86:\n        /* \"#utility.yul\":4873:5012   */\n      swap1\n      pop\n        /* \"#utility.yul\":4600:5019   */\n      swap2\n      swap1\n      pop\n      jump\t// out\n        /* \"#utility.yul\":5025:5205   */\n    tag_46:\n        /* \"#utility.yul\":5073:5150   */\n      0x4e487b7100000000000000000000000000000000000000000000000000000000\n        /* \"#utility.yul\":5070:5071   */\n      0x00\n        /* \"#utility.yul\":5063:5151   */\n      mstore\n        /* \"#utility.yul\":5170:5174   */\n      0x11\n        /* \"#utility.yul\":5167:5168   */\n      0x04\n        /* \"#utility.yul\":5160:5175   */\n      mstore\n        /* \"#utility.yul\":5194:5198   */\n      0x24\n        /* \"#utility.yul\":5191:5192   */\n      0x00\n        /* \"#utility.yul\":5184:5199   */\n      revert\n        /* \"#utility.yul\":5211:5621   */\n    tag_26:\n        /* \"#utility.yul\":5251:5258   */\n      0x00\n        /* \"#utility.yul\":5274:5294   */\n      tag_89\n        /* \"#utility.yul\":5292:5293   */\n      dup3\n        /* \"#utility.yul\":5274:5294   */\n      tag_32\n      jump\t// in\n    tag_89:\n        /* \"#utility.yul\":5269:5294   */\n      swap2\n      pop\n        /* \"#utility.yul\":5308:5328   */\n      tag_90\n        /* \"#utility.yul\":5326:5327   */\n      dup4\n        /* \"#utility.yul\":5308:5328   */\n      tag_32\n      jump\t// in\n    tag_90:\n        /* \"#utility.yul\":5303:5328   */\n      swap3\n      pop\n        /* \"#utility.yul\":5363:5364   */\n      dup3\n        /* \"#utility.yul\":5360:5361   */\n      dup3\n        /* \"#utility.yul\":5356:5365   */\n      mul\n        /* \"#utility.yul\":5385:5415   */\n      tag_91\n        /* \"#utility.yul\":5403:5414   */\n      dup2\n        /* \"#utility.yul\":5385:5415   */\n      tag_32\n      jump\t// in\n    tag_91:\n        /* \"#utility.yul\":5374:5415   */\n      swap2\n      pop\n        /* \"#utility.yul\":5564:5565   */\n      dup3\n        /* \"#utility.yul\":5555:5562   */\n      dup3\n        /* \"#utility.yul\":5551:5566   */\n      div\n        /* \"#utility.yul\":5548:5549   */\n      dup5\n        /* \"#utility.yul\":5545:5567   */\n      eq\n        /* \"#utility.yul\":5525:5526   */\n      dup4\n        /* \"#utility.yul\":5518:5527   */\n      iszero\n        /* \"#utility.yul\":5498:5581   */\n      or\n        /* \"#utility.yul\":5475:5614   */\n      tag_92\n      jumpi\n        /* \"#utility.yul\":5594:5612   */\n      tag_93\n      tag_46\n      jump\t// in\n    tag_93:\n        /* \"#utility.yul\":5475:5614   */\n    tag_92:\n        /* \"#utility.yul\":5259:5621   */\n      pop\n        /* \"#utility.yul\":5211:5621   */\n      swap3\n      swap2\n      pop\n      pop\n      jump\t// out\n        /* \"#utility.yul\":5627:5807   */\n    tag_47:\n        /* \"#utility.yul\":5675:5752   */\n      0x4e487b7100000000000000000000000000000000000000000000000000000000\n        /* \"#utility.yul\":5672:5673   */\n      0x00\n        /* \"#utility.yul\":5665:5753   */\n      mstore\n        /* \"#utility.yul\":5772:5776   */\n      0x12\n        /* \"#utility.yul\":5769:5770   */\n      0x04\n        /* \"#utility.yul\":5762:5777   */\n      mstore\n        /* \"#utility.yul\":5796:5800   */\n      0x24\n        /* \"#utility.yul\":5793:5794   */\n      0x00\n        /* \"#utility.yul\":5786:5801   */\n      revert\n        /* \"#utility.yul\":5813:5998   */\n    tag_29:\n        /* \"#utility.yul\":5853:5854   */\n      0x00\n        /* \"#utility.yul\":5870:5890   */\n      tag_96\n        /* \"#utility.yul\":5888:5889   */\n      dup3\n        /* \"#utility.yul\":5870:5890   */\n      tag_32\n      jump\t// in\n    tag_96:\n        /* \"#utility.yul\":5865:5890   */\n      swap2\n      pop\n        /* \"#utility.yul\":5904:5924   */\n      tag_97\n        /* \"#utility.yul\":5922:5923   */\n      dup4\n        /* \"#utility.yul\":5904:5924   */\n      tag_32\n      jump\t// in\n    tag_97:\n        /* \"#utility.yul\":5899:5924   */\n      swap3\n      pop\n        /* \"#utility.yul\":5943:5944   */\n      dup3\n        /* \"#utility.yul\":5933:5968   */\n      tag_98\n      jumpi\n        /* \"#utility.yul\":5948:5966   */\n      tag_99\n      tag_47\n      jump\t// in\n    tag_99:\n        /* \"#utility.yul\":5933:5968   */\n    tag_98:\n        /* \"#utility.yul\":5990:5991   */\n      dup3\n        /* \"#utility.yul\":5987:5988   */\n      dup3\n        /* \"#utility.yul\":5983:5992   */\n      div\n        /* \"#utility.yul\":5978:5992   */\n      swap1\n      pop\n        /* \"#utility.yul\":5813:5998   */\n      swap3\n      swap2\n      pop\n      pop\n      jump\t// out\n        /* \"#utility.yul\":6004:6195   */\n    tag_31:\n        /* \"#utility.yul\":6044:6047   */\n      0x00\n        /* \"#utility.yul\":6063:6083   */\n      tag_101\n        /* \"#utility.yul\":6081:6082   */\n      dup3\n        /* \"#utility.yul\":6063:6083   */\n      tag_32\n      jump\t// in\n    tag_101:\n        /* \"#utility.yul\":6058:6083   */\n      swap2\n      pop\n        /* \"#utility.yul\":6097:6117   */\n      tag_102\n        /* \"#utility.yul\":6115:6116   */\n      dup4\n        /* \"#utility.yul\":6097:6117   */\n      tag_32\n      jump\t// in\n    tag_102:\n        /* \"#utility.yul\":6092:6117   */\n      swap3\n      pop\n        /* \"#utility.yul\":6140:6141   */\n      dup3\n        /* \"#utility.yul\":6137:6138   */\n      dup3\n        /* \"#utility.yul\":6133:6142   */\n      add\n        /* \"#utility.yul\":6126:6142   */\n      swap1\n      pop\n        /* \"#utility.yul\":6161:6164   */\n      dup1\n        /* \"#utility.yul\":6158:6159   */\n      dup3\n        /* \"#utility.yul\":6155:6165   */\n      gt\n        /* \"#utility.yul\":6152:6188   */\n      iszero\n      tag_103\n      jumpi\n        /* \"#utility.yul\":6168:6186   */\n      tag_104\n      tag_46\n      jump\t// in\n    tag_104:\n        /* \"#utility.yul\":6152:6188   */\n    tag_103:\n        /* \"#utility.yul\":6004:6195   */\n      swap3\n      swap2\n      pop\n      pop\n      jump\t// out\n\n    auxdata: 0xa2646970667358221220a21e894976e53039af91a6c793d4c151c5b7e92ac4327317dacfb9c2754e60cc64736f6c634300081c0033\n}\n",
				"bytecode": {
					"linkReferences": {},
					"object": "6080604052348015600e575f5ffd5b506105398061001c5f395ff3fe608060405234801561000f575f5ffd5b5060043610610034575f3560e01c80632ddbd13a14610038578063e088abdd14610056575b5f5ffd5b610040610086565b60405161004d91906101b4565b60405180910390f35b610070600480360381019061006b91906101fb565b61008b565b60405161007d91906101b4565b60405180910390f35b5f5481565b5f5f84116100ce576040517f08c379a00000000000000000000000000000000000000000000000000000000081526004016100c5906102cb565b60405180910390fd5b5f831180156100dd5750606583105b61011c576040517f08c379a000000000000000000000000000000000000000000000000000000000815260040161011390610359565b60405180910390fd5b5f821161015e576040517f08c379a0000000000000000000000000000000000000000000000000000000008152600401610155906103e7565b60405180910390fd5b606482848661016d9190610432565b6101779190610432565b61018191906104a0565b8461018c91906104d0565b5f819055505f5490509392505050565b5f819050919050565b6101ae8161019c565b82525050565b5f6020820190506101c75f8301846101a5565b92915050565b5f5ffd5b6101da8161019c565b81146101e4575f5ffd5b50565b5f813590506101f5816101d1565b92915050565b5f5f5f60608486031215610212576102116101cd565b5b5f61021f868287016101e7565b9350506020610230868287016101e7565b9250506040610241868287016101e7565b9150509250925092565b5f82825260208201905092915050565b7f4c6f616e20225072696e636970616c222073686f756c642062696767657220745f8201527f68656e207a65726f2e0000000000000000000000000000000000000000000000602082015250565b5f6102b560298361024b565b91506102c08261025b565b604082019050919050565b5f6020820190508181035f8301526102e2816102a9565b9050919050565b7f4c6f616e202252617465222073686f756c64206265206265747765656e2031205f8201527f616e64203130302e000000000000000000000000000000000000000000000000602082015250565b5f61034360288361024b565b915061034e826102e9565b604082019050919050565b5f6020820190508181035f83015261037081610337565b9050919050565b7f4c6f616e202259656172222073686f756c6420626967676572207468656e207a5f8201527f65726f2e00000000000000000000000000000000000000000000000000000000602082015250565b5f6103d160248361024b565b91506103dc82610377565b604082019050919050565b5f6020820190508181035f8301526103fe816103c5565b9050919050565b7f4e487b71000000000000000000000000000000000000000000000000000000005f52601160045260245ffd5b5f61043c8261019c565b91506104478361019c565b92508282026104558161019c565b9150828204841483151761046c5761046b610405565b5b5092915050565b7f4e487b71000000000000000000000000000000000000000000000000000000005f52601260045260245ffd5b5f6104aa8261019c565b91506104b58361019c565b9250826104c5576104c4610473565b5b828204905092915050565b5f6104da8261019c565b91506104e58361019c565b92508282019050808211156104fd576104fc610405565b5b9291505056fea2646970667358221220a21e894976e53039af91a6c793d4c151c5b7e92ac4327317dacfb9c2754e60cc64736f6c634300081c0033",
					"opcodes": "PUSH1 0x80 PUSH1 0x40 MSTORE CALLVALUE DUP1 ISZERO PUSH1 0xE JUMPI PUSH0 PUSH0 REVERT JUMPDEST POP PUSH2 0x539 DUP1 PUSH2 0x1C PUSH0 CODECOPY PUSH0 RETURN INVALID PUSH1 0x80 PUSH1 0x40 MSTORE CALLVALUE DUP1 ISZERO PUSH2 0xF JUMPI PUSH0 PUSH0 REVERT JUMPDEST POP PUSH1 0x4 CALLDATASIZE LT PUSH2 0x34 JUMPI PUSH0 CALLDATALOAD PUSH1 0xE0 SHR DUP1 PUSH4 0x2DDBD13A EQ PUSH2 0x38 JUMPI DUP1 PUSH4 0xE088ABDD EQ PUSH2 0x56 JUMPI JUMPDEST PUSH0 PUSH0 REVERT JUMPDEST PUSH2 0x40 PUSH2 0x86 JUMP JUMPDEST PUSH1 0x40 MLOAD PUSH2 0x4D SWAP2 SWAP1 PUSH2 0x1B4 JUMP JUMPDEST PUSH1 0x40 MLOAD DUP1 SWAP2 SUB SWAP1 RETURN JUMPDEST PUSH2 0x70 PUSH1 0x4 DUP1 CALLDATASIZE SUB DUP2 ADD SWAP1 PUSH2 0x6B SWAP2 SWAP1 PUSH2 0x1FB JUMP JUMPDEST PUSH2 0x8B JUMP JUMPDEST PUSH1 0x40 MLOAD PUSH2 0x7D SWAP2 SWAP1 PUSH2 0x1B4 JUMP JUMPDEST PUSH1 0x40 MLOAD DUP1 SWAP2 SUB SWAP1 RETURN JUMPDEST PUSH0 SLOAD DUP2 JUMP JUMPDEST PUSH0 PUSH0 DUP5 GT PUSH2 0xCE JUMPI PUSH1 0x40 MLOAD PUSH32 0x8C379A000000000000000000000000000000000000000000000000000000000 DUP2 MSTORE PUSH1 0x4 ADD PUSH2 0xC5 SWAP1 PUSH2 0x2CB JUMP JUMPDEST PUSH1 0x40 MLOAD DUP1 SWAP2 SUB SWAP1 REVERT JUMPDEST PUSH0 DUP4 GT DUP1 ISZERO PUSH2 0xDD JUMPI POP PUSH1 0x65 DUP4 LT JUMPDEST PUSH2 0x11C JUMPI PUSH1 0x40 MLOAD PUSH32 0x8C379A000000000000000000000000000000000000000000000000000000000 DUP2 MSTORE PUSH1 0x4 ADD PUSH2 0x113 SWAP1 PUSH2 0x359 JUMP JUMPDEST PUSH1 0x40 MLOAD DUP1 SWAP2 SUB SWAP1 REVERT JUMPDEST PUSH0 DUP3 GT PUSH2 0x15E JUMPI PUSH1 0x40 MLOAD PUSH32 0x8C379A000000000000000000000000000000000000000000000000000000000 DUP2 MSTORE PUSH1 0x4 ADD PUSH2 0x155 SWAP1 PUSH2 0x3E7 JUMP JUMPDEST PUSH1 0x40 MLOAD DUP1 SWAP2 SUB SWAP1 REVERT JUMPDEST PUSH1 0x64 DUP3 DUP5 DUP7 PUSH2 0x16D SWAP2 SWAP1 PUSH2 0x432 JUMP JUMPDEST PUSH2 0x177 SWAP2 SWAP1 PUSH2 0x432 JUMP JUMPDEST PUSH2 0x181 SWAP2 SWAP1 PUSH2 0x4A0 JUMP JUMPDEST DUP5 PUSH2 0x18C SWAP2 SWAP1 PUSH2 0x4D0 JUMP JUMPDEST PUSH0 DUP2 SWAP1 SSTORE POP PUSH0 SLOAD SWAP1 POP SWAP4 SWAP3 POP POP POP JUMP JUMPDEST PUSH0 DUP2 SWAP1 POP SWAP2 SWAP1 POP JUMP JUMPDEST PUSH2 0x1AE DUP2 PUSH2 0x19C JUMP JUMPDEST DUP3 MSTORE POP POP JUMP JUMPDEST PUSH0 PUSH1 0x20 DUP3 ADD SWAP1 POP PUSH2 0x1C7 PUSH0 DUP4 ADD DUP5 PUSH2 0x1A5 JUMP JUMPDEST SWAP3 SWAP2 POP POP JUMP JUMPDEST PUSH0 PUSH0 REVERT JUMPDEST PUSH2 0x1DA DUP2 PUSH2 0x19C JUMP JUMPDEST DUP2 EQ PUSH2 0x1E4 JUMPI PUSH0 PUSH0 REVERT JUMPDEST POP JUMP JUMPDEST PUSH0 DUP2 CALLDATALOAD SWAP1 POP PUSH2 0x1F5 DUP2 PUSH2 0x1D1 JUMP JUMPDEST SWAP3 SWAP2 POP POP JUMP JUMPDEST PUSH0 PUSH0 PUSH0 PUSH1 0x60 DUP5 DUP7 SUB SLT ISZERO PUSH2 0x212 JUMPI PUSH2 0x211 PUSH2 0x1CD JUMP JUMPDEST JUMPDEST PUSH0 PUSH2 0x21F DUP7 DUP3 DUP8 ADD PUSH2 0x1E7 JUMP JUMPDEST SWAP4 POP POP PUSH1 0x20 PUSH2 0x230 DUP7 DUP3 DUP8 ADD PUSH2 0x1E7 JUMP JUMPDEST SWAP3 POP POP PUSH1 0x40 PUSH2 0x241 DUP7 DUP3 DUP8 ADD PUSH2 0x1E7 JUMP JUMPDEST SWAP2 POP POP SWAP3 POP SWAP3 POP SWAP3 JUMP JUMPDEST PUSH0 DUP3 DUP3 MSTORE PUSH1 0x20 DUP3 ADD SWAP1 POP SWAP3 SWAP2 POP POP JUMP JUMPDEST PUSH32 0x4C6F616E20225072696E636970616C222073686F756C64206269676765722074 PUSH0 DUP3 ADD MSTORE PUSH32 0x68656E207A65726F2E0000000000000000000000000000000000000000000000 PUSH1 0x20 DUP3 ADD MSTORE POP JUMP JUMPDEST PUSH0 PUSH2 0x2B5 PUSH1 0x29 DUP4 PUSH2 0x24B JUMP JUMPDEST SWAP2 POP PUSH2 0x2C0 DUP3 PUSH2 0x25B JUMP JUMPDEST PUSH1 0x40 DUP3 ADD SWAP1 POP SWAP2 SWAP1 POP JUMP JUMPDEST PUSH0 PUSH1 0x20 DUP3 ADD SWAP1 POP DUP2 DUP2 SUB PUSH0 DUP4 ADD MSTORE PUSH2 0x2E2 DUP2 PUSH2 0x2A9 JUMP JUMPDEST SWAP1 POP SWAP2 SWAP1 POP JUMP JUMPDEST PUSH32 0x4C6F616E202252617465222073686F756C64206265206265747765656E203120 PUSH0 DUP3 ADD MSTORE PUSH32 0x616E64203130302E000000000000000000000000000000000000000000000000 PUSH1 0x20 DUP3 ADD MSTORE POP JUMP JUMPDEST PUSH0 PUSH2 0x343 PUSH1 0x28 DUP4 PUSH2 0x24B JUMP JUMPDEST SWAP2 POP PUSH2 0x34E DUP3 PUSH2 0x2E9 JUMP JUMPDEST PUSH1 0x40 DUP3 ADD SWAP1 POP SWAP2 SWAP1 POP JUMP JUMPDEST PUSH0 PUSH1 0x20 DUP3 ADD SWAP1 POP DUP2 DUP2 SUB PUSH0 DUP4 ADD MSTORE PUSH2 0x370 DUP2 PUSH2 0x337 JUMP JUMPDEST SWAP1 POP SWAP2 SWAP1 POP JUMP JUMPDEST PUSH32 0x4C6F616E202259656172222073686F756C6420626967676572207468656E207A PUSH0 DUP3 ADD MSTORE PUSH32 0x65726F2E00000000000000000000000000000000000000000000000000000000 PUSH1 0x20 DUP3 ADD MSTORE POP JUMP JUMPDEST PUSH0 PUSH2 0x3D1 PUSH1 0x24 DUP4 PUSH2 0x24B JUMP JUMPDEST SWAP2 POP PUSH2 0x3DC DUP3 PUSH2 0x377 JUMP JUMPDEST PUSH1 0x40 DUP3 ADD SWAP1 POP SWAP2 SWAP1 POP JUMP JUMPDEST PUSH0 PUSH1 0x20 DUP3 ADD SWAP1 POP DUP2 DUP2 SUB PUSH0 DUP4 ADD MSTORE PUSH2 0x3FE DUP2 PUSH2 0x3C5 JUMP JUMPDEST SWAP1 POP SWAP2 SWAP1 POP JUMP JUMPDEST PUSH32 0x4E487B7100000000000000000000000000000000000000000000000000000000 PUSH0 MSTORE PUSH1 0x11 PUSH1 0x4 MSTORE PUSH1 0x24 PUSH0 REVERT JUMPDEST PUSH0 PUSH2 0x43C DUP3 PUSH2 0x19C JUMP JUMPDEST SWAP2 POP PUSH2 0x447 DUP4 PUSH2 0x19C JUMP JUMPDEST SWAP3 POP DUP3 DUP3 MUL PUSH2 0x455 DUP2 PUSH2 0x19C JUMP JUMPDEST SWAP2 POP DUP3 DUP3 DIV DUP5 EQ DUP4 ISZERO OR PUSH2 0x46C JUMPI PUSH2 0x46B PUSH2 0x405 JUMP JUMPDEST JUMPDEST POP SWAP3 SWAP2 POP POP JUMP JUMPDEST PUSH32 0x4E487B7100000000000000000000000000000000000000000000000000000000 PUSH0 MSTORE PUSH1 0x12 PUSH1 0x4 MSTORE PUSH1 0x24 PUSH0 REVERT JUMPDEST PUSH0 PUSH2 0x4AA DUP3 PUSH2 0x19C JUMP JUMPDEST SWAP2 POP PUSH2 0x4B5 DUP4 PUSH2 0x19C JUMP JUMPDEST SWAP3 POP DUP3 PUSH2 0x4C5 JUMPI PUSH2 0x4C4 PUSH2 0x473 JUMP JUMPDEST JUMPDEST DUP3 DUP3 DIV SWAP1 POP SWAP3 SWAP2 POP POP JUMP JUMPDEST PUSH0 PUSH2 0x4DA DUP3 PUSH2 0x19C JUMP JUMPDEST SWAP2 POP PUSH2 0x4E5 DUP4 PUSH2 0x19C JUMP JUMPDEST SWAP3 POP DUP3 DUP3 ADD SWAP1 POP DUP1 DUP3 GT ISZERO PUSH2 0x4FD JUMPI PUSH2 0x4FC PUSH2 0x405 JUMP JUMPDEST JUMPDEST SWAP3 SWAP2 POP POP JUMP INVALID LOG2 PUSH5 0x6970667358 0x22 SLT KECCAK256 LOG2 0x1E DUP10 BLOBHASH PUSH23 0xE53039AF91A6C793D4C151C5B7E92AC4327317DACFB9C2 PUSH22 0x4E60CC64736F6C634300081C00330000000000000000 "
				},
				"gasEstimates": {
					"creation": {
						"codeDepositCost": "267400",
						"executionCost": "304",
						"totalCost": "267704"
					},
					"external": {
						"calculateCompoundInterest(uint256,uint256,uint256)": "infinite",
						"total()": "2402"
					}
				},
				"methodIdentifiers": {
					"calculateCompoundInterest(uint256,uint256,uint256)": "e088abdd",
					"total()": "2ddbd13a"
				}
			},
			"storageLayout": {
				"storage": [
					{
						"astId": 3,
						"contract": "CompoundInterest.sol:CompoundInterest",
						"label": "total",
						"offset": 0,
						"slot": "0",
						"type": "t_uint256"
					}
				],
				"types": {
					"t_uint256": {
						"encoding": "inplace",
						"label": "uint256",
						"numberOfBytes": "32"
					}
				}
			},
			"userdoc": {
				"kind": "user",
				"methods": {},
				"version": 1
			}
		}
	}
}