{
	"Solidity Fundamentals/Lab/Crowdfunding.sol": {
		"Crowdfunding": {
			"abi": [
				{
					"inputs": [
						{
							"internalType": "uint256",
							"name": "_initSharePrice",
							"type": "uint256"
						}
					],
					"stateMutability": "nonpayable",
					"type": "constructor"
				},
				{
					"inputs": [],
					"name": "InsuficiantAmount",
					"type": "error"
				},
				{
					"inputs": [],
					"name": "buyShares",
					"outputs": [],
					"stateMutability": "payable",
					"type": "function"
				},
				{
					"inputs": [],
					"name": "sharePrice",
					"outputs": [
						{
							"internalType": "uint256",
							"name": "",
							"type": "uint256"
						}
					],
					"stateMutability": "view",
					"type": "function"
				},
				{
					"inputs": [
						{
							"internalType": "address",
							"name": "",
							"type": "address"
						}
					],
					"name": "shares",
					"outputs": [
						{
							"internalType": "uint256",
							"name": "",
							"type": "uint256"
						}
					],
					"stateMutability": "view",
					"type": "function"
				},
				{
					"inputs": [],
					"name": "totalShares",
					"outputs": [
						{
							"internalType": "uint256",
							"name": "",
							"type": "uint256"
						}
					],
					"stateMutability": "view",
					"type": "function"
				},
				{
					"inputs": [
						{
							"internalType": "address",
							"name": "holder",
							"type": "address"
						}
					],
					"name": "vote",
					"outputs": [],
					"stateMutability": "nonpayable",
					"type": "function"
				},
				{
					"inputs": [
						{
							"internalType": "uint256",
							"name": "",
							"type": "uint256"
						}
					],
					"name": "votes",
					"outputs": [
						{
							"internalType": "address",
							"name": "shareholder",
							"type": "address"
						},
						{
							"internalType": "uint256",
							"name": "shares",
							"type": "uint256"
						},
						{
							"internalType": "uint256",
							"name": "timestamp",
							"type": "uint256"
						}
					],
					"stateMutability": "view",
					"type": "function"
				}
			],
			"devdoc": {
				"kind": "dev",
				"methods": {},
				"version": 1
			},
			"evm": {
				"assembly": "    /* \"Solidity Fundamentals/Lab/Crowdfunding.sol\":182:1137  contract Crowdfunding {... */\n  mstore(0x40, 0x80)\n    /* \"Solidity Fundamentals/Lab/Crowdfunding.sol\":352:436  constructor(uint256 _initSharePrice){... */\n  callvalue\n  dup1\n  iszero\n  tag_1\n  jumpi\n  revert(0x00, 0x00)\ntag_1:\n  pop\n  mload(0x40)\n  sub(codesize, bytecodeSize)\n  dup1\n  bytecodeSize\n  dup4\n  codecopy\n  dup2\n  dup2\n  add\n  0x40\n  mstore\n  dup2\n  add\n  swap1\n  tag_2\n  swap2\n  swap1\n  tag_3\n  jump\t// in\ntag_2:\n    /* \"Solidity Fundamentals/Lab/Crowdfunding.sol\":412:427  _initSharePrice */\n  dup1\n    /* \"Solidity Fundamentals/Lab/Crowdfunding.sol\":399:409  sharePrice */\n  0x02\n    /* \"Solidity Fundamentals/Lab/Crowdfunding.sol\":399:427  sharePrice = _initSharePrice */\n  dup2\n  swap1\n  sstore\n  pop\n    /* \"Solidity Fundamentals/Lab/Crowdfunding.sol\":352:436  constructor(uint256 _initSharePrice){... */\n  pop\n    /* \"Solidity Fundamentals/Lab/Crowdfunding.sol\":182:1137  contract Crowdfunding {... */\n  jump(tag_6)\n    /* \"#utility.yul\":88:205   */\ntag_8:\n    /* \"#utility.yul\":197:198   */\n  0x00\n    /* \"#utility.yul\":194:195   */\n  0x00\n    /* \"#utility.yul\":187:199   */\n  revert\n    /* \"#utility.yul\":334:411   */\ntag_10:\n    /* \"#utility.yul\":371:378   */\n  0x00\n    /* \"#utility.yul\":400:405   */\n  dup2\n    /* \"#utility.yul\":389:405   */\n  swap1\n  pop\n    /* \"#utility.yul\":334:411   */\n  swap2\n  swap1\n  pop\n  jump\t// out\n    /* \"#utility.yul\":417:539   */\ntag_11:\n    /* \"#utility.yul\":490:514   */\n  tag_19\n    /* \"#utility.yul\":508:513   */\n  dup2\n    /* \"#utility.yul\":490:514   */\n  tag_10\n  jump\t// in\ntag_19:\n    /* \"#utility.yul\":483:488   */\n  dup2\n    /* \"#utility.yul\":480:515   */\n  eq\n    /* \"#utility.yul\":470:533   */\n  tag_20\n  jumpi\n    /* \"#utility.yul\":529:530   */\n  0x00\n    /* \"#utility.yul\":526:527   */\n  0x00\n    /* \"#utility.yul\":519:531   */\n  revert\n    /* \"#utility.yul\":470:533   */\ntag_20:\n    /* \"#utility.yul\":417:539   */\n  pop\n  jump\t// out\n    /* \"#utility.yul\":545:688   */\ntag_12:\n    /* \"#utility.yul\":602:607   */\n  0x00\n    /* \"#utility.yul\":633:639   */\n  dup2\n    /* \"#utility.yul\":627:640   */\n  mload\n    /* \"#utility.yul\":618:640   */\n  swap1\n  pop\n    /* \"#utility.yul\":649:682   */\n  tag_22\n    /* \"#utility.yul\":676:681   */\n  dup2\n    /* \"#utility.yul\":649:682   */\n  tag_11\n  jump\t// in\ntag_22:\n    /* \"#utility.yul\":545:688   */\n  swap3\n  swap2\n  pop\n  pop\n  jump\t// out\n    /* \"#utility.yul\":694:1045   */\ntag_3:\n    /* \"#utility.yul\":764:770   */\n  0x00\n    /* \"#utility.yul\":813:815   */\n  0x20\n    /* \"#utility.yul\":801:810   */\n  dup3\n    /* \"#utility.yul\":792:799   */\n  dup5\n    /* \"#utility.yul\":788:811   */\n  sub\n    /* \"#utility.yul\":784:816   */\n  slt\n    /* \"#utility.yul\":781:900   */\n  iszero\n  tag_24\n  jumpi\n    /* \"#utility.yul\":819:898   */\n  tag_25\n  tag_8\n  jump\t// in\ntag_25:\n    /* \"#utility.yul\":781:900   */\ntag_24:\n    /* \"#utility.yul\":939:940   */\n  0x00\n    /* \"#utility.yul\":964:1028   */\n  tag_26\n    /* \"#utility.yul\":1020:1027   */\n  dup5\n    /* \"#utility.yul\":1011:1017   */\n  dup3\n    /* \"#utility.yul\":1000:1009   */\n  dup6\n    /* \"#utility.yul\":996:1018   */\n  add\n    /* \"#utility.yul\":964:1028   */\n  tag_12\n  jump\t// in\ntag_26:\n    /* \"#utility.yul\":954:1028   */\n  swap2\n  pop\n    /* \"#utility.yul\":910:1038   */\n  pop\n    /* \"#utility.yul\":694:1045   */\n  swap3\n  swap2\n  pop\n  pop\n  jump\t// out\n    /* \"Solidity Fundamentals/Lab/Crowdfunding.sol\":182:1137  contract Crowdfunding {... */\ntag_6:\n  dataSize(sub_0)\n  dup1\n  dataOffset(sub_0)\n  0x00\n  codecopy\n  0x00\n  return\nstop\n\nsub_0: assembly {\n        /* \"Solidity Fundamentals/Lab/Crowdfunding.sol\":182:1137  contract Crowdfunding {... */\n      mstore(0x40, 0x80)\n      jumpi(tag_1, lt(calldatasize, 0x04))\n      shr(0xe0, calldataload(0x00))\n      dup1\n      0x3a98ef39\n      eq\n      tag_2\n      jumpi\n      dup1\n      0x5df81330\n      eq\n      tag_3\n      jumpi\n      dup1\n      0x6dd7d8ea\n      eq\n      tag_4\n      jumpi\n      dup1\n      0x87269729\n      eq\n      tag_5\n      jumpi\n      dup1\n      0xce7c2ac2\n      eq\n      tag_6\n      jumpi\n      dup1\n      0xd9527fa7\n      eq\n      tag_7\n      jumpi\n    tag_1:\n      revert(0x00, 0x00)\n        /* \"Solidity Fundamentals/Lab/Crowdfunding.sol\":317:343  uint256 public totalShares */\n    tag_2:\n      callvalue\n      dup1\n      iszero\n      tag_8\n      jumpi\n      revert(0x00, 0x00)\n    tag_8:\n      pop\n      tag_9\n      tag_10\n      jump\t// in\n    tag_9:\n      mload(0x40)\n      tag_11\n      swap2\n      swap1\n      tag_12\n      jump\t// in\n    tag_11:\n      mload(0x40)\n      dup1\n      swap2\n      sub\n      swap1\n      return\n        /* \"Solidity Fundamentals/Lab/Crowdfunding.sol\":259:278  Vote[] public votes */\n    tag_3:\n      callvalue\n      dup1\n      iszero\n      tag_13\n      jumpi\n      revert(0x00, 0x00)\n    tag_13:\n      pop\n      tag_14\n      0x04\n      dup1\n      calldatasize\n      sub\n      dup2\n      add\n      swap1\n      tag_15\n      swap2\n      swap1\n      tag_16\n      jump\t// in\n    tag_15:\n      tag_17\n      jump\t// in\n    tag_14:\n      mload(0x40)\n      tag_18\n      swap4\n      swap3\n      swap2\n      swap1\n      tag_19\n      jump\t// in\n    tag_18:\n      mload(0x40)\n      dup1\n      swap2\n      sub\n      swap1\n      return\n        /* \"Solidity Fundamentals/Lab/Crowdfunding.sol\":895:1134  function vote(address holder) external {... */\n    tag_4:\n      callvalue\n      dup1\n      iszero\n      tag_20\n      jumpi\n      revert(0x00, 0x00)\n    tag_20:\n      pop\n      tag_21\n      0x04\n      dup1\n      calldatasize\n      sub\n      dup2\n      add\n      swap1\n      tag_22\n      swap2\n      swap1\n      tag_23\n      jump\t// in\n    tag_22:\n      tag_24\n      jump\t// in\n    tag_21:\n      stop\n        /* \"Solidity Fundamentals/Lab/Crowdfunding.sol\":285:310  uint256 public sharePrice */\n    tag_5:\n      callvalue\n      dup1\n      iszero\n      tag_25\n      jumpi\n      revert(0x00, 0x00)\n    tag_25:\n      pop\n      tag_26\n      tag_27\n      jump\t// in\n    tag_26:\n      mload(0x40)\n      tag_28\n      swap2\n      swap1\n      tag_12\n      jump\t// in\n    tag_28:\n      mload(0x40)\n      dup1\n      swap2\n      sub\n      swap1\n      return\n        /* \"Solidity Fundamentals/Lab/Crowdfunding.sol\":211:252  mapping(address => uint256) public shares */\n    tag_6:\n      callvalue\n      dup1\n      iszero\n      tag_29\n      jumpi\n      revert(0x00, 0x00)\n    tag_29:\n      pop\n      tag_30\n      0x04\n      dup1\n      calldatasize\n      sub\n      dup2\n      add\n      swap1\n      tag_31\n      swap2\n      swap1\n      tag_23\n      jump\t// in\n    tag_31:\n      tag_32\n      jump\t// in\n    tag_30:\n      mload(0x40)\n      tag_33\n      swap2\n      swap1\n      tag_12\n      jump\t// in\n    tag_33:\n      mload(0x40)\n      dup1\n      swap2\n      sub\n      swap1\n      return\n        /* \"Solidity Fundamentals/Lab/Crowdfunding.sol\":444:887  function buyShares() external payable {... */\n    tag_7:\n      tag_34\n      tag_35\n      jump\t// in\n    tag_34:\n      stop\n        /* \"Solidity Fundamentals/Lab/Crowdfunding.sol\":317:343  uint256 public totalShares */\n    tag_10:\n      sload(0x03)\n      dup2\n      jump\t// out\n        /* \"Solidity Fundamentals/Lab/Crowdfunding.sol\":259:278  Vote[] public votes */\n    tag_17:\n      0x01\n      dup2\n      dup2\n      sload\n      dup2\n      lt\n      tag_36\n      jumpi\n      0x00\n      dup1\n      revert\n    tag_36:\n      swap1\n      0x00\n      mstore\n      keccak256(0x00, 0x20)\n      swap1\n      0x03\n      mul\n      add\n      0x00\n      swap2\n      pop\n      swap1\n      pop\n      dup1\n      0x00\n      add\n      0x00\n      swap1\n      sload\n      swap1\n      0x0100\n      exp\n      swap1\n      div\n      0xffffffffffffffffffffffffffffffffffffffff\n      and\n      swap1\n      dup1\n      0x01\n      add\n      sload\n      swap1\n      dup1\n      0x02\n      add\n      sload\n      swap1\n      pop\n      dup4\n      jump\t// out\n        /* \"Solidity Fundamentals/Lab/Crowdfunding.sol\":895:1134  function vote(address holder) external {... */\n    tag_24:\n        /* \"Solidity Fundamentals/Lab/Crowdfunding.sol\":945:950  votes */\n      0x01\n        /* \"Solidity Fundamentals/Lab/Crowdfunding.sol\":970:1115  Vote({... */\n      mload(0x40)\n      dup1\n      0x60\n      add\n      0x40\n      mstore\n      dup1\n        /* \"Solidity Fundamentals/Lab/Crowdfunding.sol\":1007:1013  holder */\n      dup4\n        /* \"Solidity Fundamentals/Lab/Crowdfunding.sol\":970:1115  Vote({... */\n      0xffffffffffffffffffffffffffffffffffffffff\n      and\n      dup2\n      mstore\n      0x20\n      add\n        /* \"Solidity Fundamentals/Lab/Crowdfunding.sol\":1040:1046  shares */\n      0x00\n        /* \"Solidity Fundamentals/Lab/Crowdfunding.sol\":1040:1054  shares[holder] */\n      0x00\n        /* \"Solidity Fundamentals/Lab/Crowdfunding.sol\":1047:1053  holder */\n      dup6\n        /* \"Solidity Fundamentals/Lab/Crowdfunding.sol\":1040:1054  shares[holder] */\n      0xffffffffffffffffffffffffffffffffffffffff\n      and\n      0xffffffffffffffffffffffffffffffffffffffff\n      and\n      dup2\n      mstore\n      0x20\n      add\n      swap1\n      dup2\n      mstore\n      0x20\n      add\n      0x00\n      keccak256\n      sload\n        /* \"Solidity Fundamentals/Lab/Crowdfunding.sol\":970:1115  Vote({... */\n      dup2\n      mstore\n      0x20\n      add\n        /* \"Solidity Fundamentals/Lab/Crowdfunding.sol\":1084:1099  block.timestamp */\n      timestamp\n        /* \"Solidity Fundamentals/Lab/Crowdfunding.sol\":970:1115  Vote({... */\n      dup2\n      mstore\n      pop\n        /* \"Solidity Fundamentals/Lab/Crowdfunding.sol\":945:1126  votes.push(... */\n      swap1\n      dup1\n      0x01\n      dup2\n      sload\n      add\n      dup1\n      dup3\n      sstore\n      dup1\n      swap2\n      pop\n      pop\n      0x01\n      swap1\n      sub\n      swap1\n      0x00\n      mstore\n      keccak256(0x00, 0x20)\n      swap1\n      0x03\n      mul\n      add\n      0x00\n      swap1\n      swap2\n      swap1\n      swap2\n      swap1\n      swap2\n      pop\n      0x00\n      dup3\n      add\n      mload\n      dup2\n      0x00\n      add\n      exp(0x0100, 0x00)\n      dup2\n      sload\n      dup2\n      0xffffffffffffffffffffffffffffffffffffffff\n      mul\n      not\n      and\n      swap1\n      dup4\n      0xffffffffffffffffffffffffffffffffffffffff\n      and\n      mul\n      or\n      swap1\n      sstore\n      pop\n      0x20\n      dup3\n      add\n      mload\n      dup2\n      0x01\n      add\n      sstore\n      0x40\n      dup3\n      add\n      mload\n      dup2\n      0x02\n      add\n      sstore\n      pop\n      pop\n        /* \"Solidity Fundamentals/Lab/Crowdfunding.sol\":895:1134  function vote(address holder) external {... */\n      pop\n      jump\t// out\n        /* \"Solidity Fundamentals/Lab/Crowdfunding.sol\":285:310  uint256 public sharePrice */\n    tag_27:\n      sload(0x02)\n      dup2\n      jump\t// out\n        /* \"Solidity Fundamentals/Lab/Crowdfunding.sol\":211:252  mapping(address => uint256) public shares */\n    tag_32:\n      mstore(0x20, 0x00)\n      dup1\n      0x00\n      mstore\n      keccak256(0x00, 0x40)\n      0x00\n      swap2\n      pop\n      swap1\n      pop\n      sload\n      dup2\n      jump\t// out\n        /* \"Solidity Fundamentals/Lab/Crowdfunding.sol\":444:887  function buyShares() external payable {... */\n    tag_35:\n        /* \"Solidity Fundamentals/Lab/Crowdfunding.sol\":509:519  sharePrice */\n      sload(0x02)\n        /* \"Solidity Fundamentals/Lab/Crowdfunding.sol\":497:506  msg.value */\n      callvalue\n        /* \"Solidity Fundamentals/Lab/Crowdfunding.sol\":497:519  msg.value < sharePrice */\n      lt\n        /* \"Solidity Fundamentals/Lab/Crowdfunding.sol\":493:575  if (msg.value < sharePrice) {... */\n      iszero\n      tag_41\n      jumpi\n        /* \"Solidity Fundamentals/Lab/Crowdfunding.sol\":543:562  InsuficiantAmount() */\n      mload(0x40)\n      0x99d6307400000000000000000000000000000000000000000000000000000000\n      dup2\n      mstore\n      0x04\n      add\n      mload(0x40)\n      dup1\n      swap2\n      sub\n      swap1\n      revert\n        /* \"Solidity Fundamentals/Lab/Crowdfunding.sol\":493:575  if (msg.value < sharePrice) {... */\n    tag_41:\n        /* \"Solidity Fundamentals/Lab/Crowdfunding.sol\":616:617  0 */\n      0x00\n        /* \"Solidity Fundamentals/Lab/Crowdfunding.sol\":603:613  sharePrice */\n      sload(0x02)\n        /* \"Solidity Fundamentals/Lab/Crowdfunding.sol\":591:600  msg.value */\n      callvalue\n        /* \"Solidity Fundamentals/Lab/Crowdfunding.sol\":591:613  msg.value % sharePrice */\n      tag_42\n      swap2\n      swap1\n      tag_43\n      jump\t// in\n    tag_42:\n        /* \"Solidity Fundamentals/Lab/Crowdfunding.sol\":591:617  msg.value % sharePrice > 0 */\n      gt\n        /* \"Solidity Fundamentals/Lab/Crowdfunding.sol\":587:673  if (msg.value % sharePrice > 0) {... */\n      iszero\n      tag_44\n      jumpi\n        /* \"Solidity Fundamentals/Lab/Crowdfunding.sol\":641:660  InsuficiantAmount() */\n      mload(0x40)\n      0x99d6307400000000000000000000000000000000000000000000000000000000\n      dup2\n      mstore\n      0x04\n      add\n      mload(0x40)\n      dup1\n      swap2\n      sub\n      swap1\n      revert\n        /* \"Solidity Fundamentals/Lab/Crowdfunding.sol\":587:673  if (msg.value % sharePrice > 0) {... */\n    tag_44:\n        /* \"Solidity Fundamentals/Lab/Crowdfunding.sol\":685:708  uint256 sharesToReceive */\n      0x00\n        /* \"Solidity Fundamentals/Lab/Crowdfunding.sol\":723:733  sharePrice */\n      sload(0x02)\n        /* \"Solidity Fundamentals/Lab/Crowdfunding.sol\":711:720  msg.value */\n      callvalue\n        /* \"Solidity Fundamentals/Lab/Crowdfunding.sol\":711:733  msg.value / sharePrice */\n      tag_45\n      swap2\n      swap1\n      tag_46\n      jump\t// in\n    tag_45:\n        /* \"Solidity Fundamentals/Lab/Crowdfunding.sol\":685:733  uint256 sharesToReceive = msg.value / sharePrice */\n      swap1\n      pop\n        /* \"Solidity Fundamentals/Lab/Crowdfunding.sol\":816:831  sharesToReceive */\n      dup1\n        /* \"Solidity Fundamentals/Lab/Crowdfunding.sol\":802:813  totalShares */\n      0x03\n        /* \"Solidity Fundamentals/Lab/Crowdfunding.sol\":802:831  totalShares = sharesToReceive */\n      dup2\n      swap1\n      sstore\n      pop\n        /* \"Solidity Fundamentals/Lab/Crowdfunding.sol\":864:879  sharesToReceive */\n      dup1\n        /* \"Solidity Fundamentals/Lab/Crowdfunding.sol\":842:848  shares */\n      0x00\n        /* \"Solidity Fundamentals/Lab/Crowdfunding.sol\":842:860  shares[msg.sender] */\n      0x00\n        /* \"Solidity Fundamentals/Lab/Crowdfunding.sol\":849:859  msg.sender */\n      caller\n        /* \"Solidity Fundamentals/Lab/Crowdfunding.sol\":842:860  shares[msg.sender] */\n      0xffffffffffffffffffffffffffffffffffffffff\n      and\n      0xffffffffffffffffffffffffffffffffffffffff\n      and\n      dup2\n      mstore\n      0x20\n      add\n      swap1\n      dup2\n      mstore\n      0x20\n      add\n      0x00\n      keccak256\n      0x00\n        /* \"Solidity Fundamentals/Lab/Crowdfunding.sol\":842:879  shares[msg.sender] += sharesToReceive */\n      dup3\n      dup3\n      sload\n      tag_47\n      swap2\n      swap1\n      tag_48\n      jump\t// in\n    tag_47:\n      swap3\n      pop\n      pop\n      dup2\n      swap1\n      sstore\n      pop\n        /* \"Solidity Fundamentals/Lab/Crowdfunding.sol\":482:887  {... */\n      pop\n        /* \"Solidity Fundamentals/Lab/Crowdfunding.sol\":444:887  function buyShares() external payable {... */\n      jump\t// out\n        /* \"#utility.yul\":7:84   */\n    tag_49:\n        /* \"#utility.yul\":44:51   */\n      0x00\n        /* \"#utility.yul\":73:78   */\n      dup2\n        /* \"#utility.yul\":62:78   */\n      swap1\n      pop\n        /* \"#utility.yul\":7:84   */\n      swap2\n      swap1\n      pop\n      jump\t// out\n        /* \"#utility.yul\":90:208   */\n    tag_50:\n        /* \"#utility.yul\":177:201   */\n      tag_66\n        /* \"#utility.yul\":195:200   */\n      dup2\n        /* \"#utility.yul\":177:201   */\n      tag_49\n      jump\t// in\n    tag_66:\n        /* \"#utility.yul\":172:175   */\n      dup3\n        /* \"#utility.yul\":165:202   */\n      mstore\n        /* \"#utility.yul\":90:208   */\n      pop\n      pop\n      jump\t// out\n        /* \"#utility.yul\":214:436   */\n    tag_12:\n        /* \"#utility.yul\":307:311   */\n      0x00\n        /* \"#utility.yul\":345:347   */\n      0x20\n        /* \"#utility.yul\":334:343   */\n      dup3\n        /* \"#utility.yul\":330:348   */\n      add\n        /* \"#utility.yul\":322:348   */\n      swap1\n      pop\n        /* \"#utility.yul\":358:429   */\n      tag_68\n        /* \"#utility.yul\":426:427   */\n      0x00\n        /* \"#utility.yul\":415:424   */\n      dup4\n        /* \"#utility.yul\":411:428   */\n      add\n        /* \"#utility.yul\":402:408   */\n      dup5\n        /* \"#utility.yul\":358:429   */\n      tag_50\n      jump\t// in\n    tag_68:\n        /* \"#utility.yul\":214:436   */\n      swap3\n      swap2\n      pop\n      pop\n      jump\t// out\n        /* \"#utility.yul\":523:640   */\n    tag_52:\n        /* \"#utility.yul\":632:633   */\n      0x00\n        /* \"#utility.yul\":629:630   */\n      0x00\n        /* \"#utility.yul\":622:634   */\n      revert\n        /* \"#utility.yul\":769:891   */\n    tag_54:\n        /* \"#utility.yul\":842:866   */\n      tag_73\n        /* \"#utility.yul\":860:865   */\n      dup2\n        /* \"#utility.yul\":842:866   */\n      tag_49\n      jump\t// in\n    tag_73:\n        /* \"#utility.yul\":835:840   */\n      dup2\n        /* \"#utility.yul\":832:867   */\n      eq\n        /* \"#utility.yul\":822:885   */\n      tag_74\n      jumpi\n        /* \"#utility.yul\":881:882   */\n      0x00\n        /* \"#utility.yul\":878:879   */\n      0x00\n        /* \"#utility.yul\":871:883   */\n      revert\n        /* \"#utility.yul\":822:885   */\n    tag_74:\n        /* \"#utility.yul\":769:891   */\n      pop\n      jump\t// out\n        /* \"#utility.yul\":897:1036   */\n    tag_55:\n        /* \"#utility.yul\":943:948   */\n      0x00\n        /* \"#utility.yul\":981:987   */\n      dup2\n        /* \"#utility.yul\":968:988   */\n      calldataload\n        /* \"#utility.yul\":959:988   */\n      swap1\n      pop\n        /* \"#utility.yul\":997:1030   */\n      tag_76\n        /* \"#utility.yul\":1024:1029   */\n      dup2\n        /* \"#utility.yul\":997:1030   */\n      tag_54\n      jump\t// in\n    tag_76:\n        /* \"#utility.yul\":897:1036   */\n      swap3\n      swap2\n      pop\n      pop\n      jump\t// out\n        /* \"#utility.yul\":1042:1371   */\n    tag_16:\n        /* \"#utility.yul\":1101:1107   */\n      0x00\n        /* \"#utility.yul\":1150:1152   */\n      0x20\n        /* \"#utility.yul\":1138:1147   */\n      dup3\n        /* \"#utility.yul\":1129:1136   */\n      dup5\n        /* \"#utility.yul\":1125:1148   */\n      sub\n        /* \"#utility.yul\":1121:1153   */\n      slt\n        /* \"#utility.yul\":1118:1237   */\n      iszero\n      tag_78\n      jumpi\n        /* \"#utility.yul\":1156:1235   */\n      tag_79\n      tag_52\n      jump\t// in\n    tag_79:\n        /* \"#utility.yul\":1118:1237   */\n    tag_78:\n        /* \"#utility.yul\":1276:1277   */\n      0x00\n        /* \"#utility.yul\":1301:1354   */\n      tag_80\n        /* \"#utility.yul\":1346:1353   */\n      dup5\n        /* \"#utility.yul\":1337:1343   */\n      dup3\n        /* \"#utility.yul\":1326:1335   */\n      dup6\n        /* \"#utility.yul\":1322:1344   */\n      add\n        /* \"#utility.yul\":1301:1354   */\n      tag_55\n      jump\t// in\n    tag_80:\n        /* \"#utility.yul\":1291:1354   */\n      swap2\n      pop\n        /* \"#utility.yul\":1247:1364   */\n      pop\n        /* \"#utility.yul\":1042:1371   */\n      swap3\n      swap2\n      pop\n      pop\n      jump\t// out\n        /* \"#utility.yul\":1377:1503   */\n    tag_56:\n        /* \"#utility.yul\":1414:1421   */\n      0x00\n        /* \"#utility.yul\":1454:1496   */\n      0xffffffffffffffffffffffffffffffffffffffff\n        /* \"#utility.yul\":1447:1452   */\n      dup3\n        /* \"#utility.yul\":1443:1497   */\n      and\n        /* \"#utility.yul\":1432:1497   */\n      swap1\n      pop\n        /* \"#utility.yul\":1377:1503   */\n      swap2\n      swap1\n      pop\n      jump\t// out\n        /* \"#utility.yul\":1509:1605   */\n    tag_57:\n        /* \"#utility.yul\":1546:1553   */\n      0x00\n        /* \"#utility.yul\":1575:1599   */\n      tag_83\n        /* \"#utility.yul\":1593:1598   */\n      dup3\n        /* \"#utility.yul\":1575:1599   */\n      tag_56\n      jump\t// in\n    tag_83:\n        /* \"#utility.yul\":1564:1599   */\n      swap1\n      pop\n        /* \"#utility.yul\":1509:1605   */\n      swap2\n      swap1\n      pop\n      jump\t// out\n        /* \"#utility.yul\":1611:1729   */\n    tag_58:\n        /* \"#utility.yul\":1698:1722   */\n      tag_85\n        /* \"#utility.yul\":1716:1721   */\n      dup2\n        /* \"#utility.yul\":1698:1722   */\n      tag_57\n      jump\t// in\n    tag_85:\n        /* \"#utility.yul\":1693:1696   */\n      dup3\n        /* \"#utility.yul\":1686:1723   */\n      mstore\n        /* \"#utility.yul\":1611:1729   */\n      pop\n      pop\n      jump\t// out\n        /* \"#utility.yul\":1735:2177   */\n    tag_19:\n        /* \"#utility.yul\":1884:1888   */\n      0x00\n        /* \"#utility.yul\":1922:1924   */\n      0x60\n        /* \"#utility.yul\":1911:1920   */\n      dup3\n        /* \"#utility.yul\":1907:1925   */\n      add\n        /* \"#utility.yul\":1899:1925   */\n      swap1\n      pop\n        /* \"#utility.yul\":1935:2006   */\n      tag_87\n        /* \"#utility.yul\":2003:2004   */\n      0x00\n        /* \"#utility.yul\":1992:2001   */\n      dup4\n        /* \"#utility.yul\":1988:2005   */\n      add\n        /* \"#utility.yul\":1979:1985   */\n      dup7\n        /* \"#utility.yul\":1935:2006   */\n      tag_58\n      jump\t// in\n    tag_87:\n        /* \"#utility.yul\":2016:2088   */\n      tag_88\n        /* \"#utility.yul\":2084:2086   */\n      0x20\n        /* \"#utility.yul\":2073:2082   */\n      dup4\n        /* \"#utility.yul\":2069:2087   */\n      add\n        /* \"#utility.yul\":2060:2066   */\n      dup6\n        /* \"#utility.yul\":2016:2088   */\n      tag_50\n      jump\t// in\n    tag_88:\n        /* \"#utility.yul\":2098:2170   */\n      tag_89\n        /* \"#utility.yul\":2166:2168   */\n      0x40\n        /* \"#utility.yul\":2155:2164   */\n      dup4\n        /* \"#utility.yul\":2151:2169   */\n      add\n        /* \"#utility.yul\":2142:2148   */\n      dup5\n        /* \"#utility.yul\":2098:2170   */\n      tag_50\n      jump\t// in\n    tag_89:\n        /* \"#utility.yul\":1735:2177   */\n      swap5\n      swap4\n      pop\n      pop\n      pop\n      pop\n      jump\t// out\n        /* \"#utility.yul\":2183:2305   */\n    tag_59:\n        /* \"#utility.yul\":2256:2280   */\n      tag_91\n        /* \"#utility.yul\":2274:2279   */\n      dup2\n        /* \"#utility.yul\":2256:2280   */\n      tag_57\n      jump\t// in\n    tag_91:\n        /* \"#utility.yul\":2249:2254   */\n      dup2\n        /* \"#utility.yul\":2246:2281   */\n      eq\n        /* \"#utility.yul\":2236:2299   */\n      tag_92\n      jumpi\n        /* \"#utility.yul\":2295:2296   */\n      0x00\n        /* \"#utility.yul\":2292:2293   */\n      0x00\n        /* \"#utility.yul\":2285:2297   */\n      revert\n        /* \"#utility.yul\":2236:2299   */\n    tag_92:\n        /* \"#utility.yul\":2183:2305   */\n      pop\n      jump\t// out\n        /* \"#utility.yul\":2311:2450   */\n    tag_60:\n        /* \"#utility.yul\":2357:2362   */\n      0x00\n        /* \"#utility.yul\":2395:2401   */\n      dup2\n        /* \"#utility.yul\":2382:2402   */\n      calldataload\n        /* \"#utility.yul\":2373:2402   */\n      swap1\n      pop\n        /* \"#utility.yul\":2411:2444   */\n      tag_94\n        /* \"#utility.yul\":2438:2443   */\n      dup2\n        /* \"#utility.yul\":2411:2444   */\n      tag_59\n      jump\t// in\n    tag_94:\n        /* \"#utility.yul\":2311:2450   */\n      swap3\n      swap2\n      pop\n      pop\n      jump\t// out\n        /* \"#utility.yul\":2456:2785   */\n    tag_23:\n        /* \"#utility.yul\":2515:2521   */\n      0x00\n        /* \"#utility.yul\":2564:2566   */\n      0x20\n        /* \"#utility.yul\":2552:2561   */\n      dup3\n        /* \"#utility.yul\":2543:2550   */\n      dup5\n        /* \"#utility.yul\":2539:2562   */\n      sub\n        /* \"#utility.yul\":2535:2567   */\n      slt\n        /* \"#utility.yul\":2532:2651   */\n      iszero\n      tag_96\n      jumpi\n        /* \"#utility.yul\":2570:2649   */\n      tag_97\n      tag_52\n      jump\t// in\n    tag_97:\n        /* \"#utility.yul\":2532:2651   */\n    tag_96:\n        /* \"#utility.yul\":2690:2691   */\n      0x00\n        /* \"#utility.yul\":2715:2768   */\n      tag_98\n        /* \"#utility.yul\":2760:2767   */\n      dup5\n        /* \"#utility.yul\":2751:2757   */\n      dup3\n        /* \"#utility.yul\":2740:2749   */\n      dup6\n        /* \"#utility.yul\":2736:2758   */\n      add\n        /* \"#utility.yul\":2715:2768   */\n      tag_60\n      jump\t// in\n    tag_98:\n        /* \"#utility.yul\":2705:2768   */\n      swap2\n      pop\n        /* \"#utility.yul\":2661:2778   */\n      pop\n        /* \"#utility.yul\":2456:2785   */\n      swap3\n      swap2\n      pop\n      pop\n      jump\t// out\n        /* \"#utility.yul\":2791:2971   */\n    tag_61:\n        /* \"#utility.yul\":2839:2916   */\n      0x4e487b7100000000000000000000000000000000000000000000000000000000\n        /* \"#utility.yul\":2836:2837   */\n      0x00\n        /* \"#utility.yul\":2829:2917   */\n      mstore\n        /* \"#utility.yul\":2936:2940   */\n      0x12\n        /* \"#utility.yul\":2933:2934   */\n      0x04\n        /* \"#utility.yul\":2926:2941   */\n      mstore\n        /* \"#utility.yul\":2960:2964   */\n      0x24\n        /* \"#utility.yul\":2957:2958   */\n      0x00\n        /* \"#utility.yul\":2950:2965   */\n      revert\n        /* \"#utility.yul\":2977:3153   */\n    tag_43:\n        /* \"#utility.yul\":3009:3010   */\n      0x00\n        /* \"#utility.yul\":3026:3046   */\n      tag_101\n        /* \"#utility.yul\":3044:3045   */\n      dup3\n        /* \"#utility.yul\":3026:3046   */\n      tag_49\n      jump\t// in\n    tag_101:\n        /* \"#utility.yul\":3021:3046   */\n      swap2\n      pop\n        /* \"#utility.yul\":3060:3080   */\n      tag_102\n        /* \"#utility.yul\":3078:3079   */\n      dup4\n        /* \"#utility.yul\":3060:3080   */\n      tag_49\n      jump\t// in\n    tag_102:\n        /* \"#utility.yul\":3055:3080   */\n      swap3\n      pop\n        /* \"#utility.yul\":3099:3100   */\n      dup3\n        /* \"#utility.yul\":3089:3124   */\n      tag_103\n      jumpi\n        /* \"#utility.yul\":3104:3122   */\n      tag_104\n      tag_61\n      jump\t// in\n    tag_104:\n        /* \"#utility.yul\":3089:3124   */\n    tag_103:\n        /* \"#utility.yul\":3145:3146   */\n      dup3\n        /* \"#utility.yul\":3142:3143   */\n      dup3\n        /* \"#utility.yul\":3138:3147   */\n      mod\n        /* \"#utility.yul\":3133:3147   */\n      swap1\n      pop\n        /* \"#utility.yul\":2977:3153   */\n      swap3\n      swap2\n      pop\n      pop\n      jump\t// out\n        /* \"#utility.yul\":3159:3339   */\n    tag_62:\n        /* \"#utility.yul\":3207:3284   */\n      0x4e487b7100000000000000000000000000000000000000000000000000000000\n        /* \"#utility.yul\":3204:3205   */\n      0x00\n        /* \"#utility.yul\":3197:3285   */\n      mstore\n        /* \"#utility.yul\":3304:3308   */\n      0x11\n        /* \"#utility.yul\":3301:3302   */\n      0x04\n        /* \"#utility.yul\":3294:3309   */\n      mstore\n        /* \"#utility.yul\":3328:3332   */\n      0x24\n        /* \"#utility.yul\":3325:3326   */\n      0x00\n        /* \"#utility.yul\":3318:3333   */\n      revert\n        /* \"#utility.yul\":3345:3530   */\n    tag_46:\n        /* \"#utility.yul\":3385:3386   */\n      0x00\n        /* \"#utility.yul\":3402:3422   */\n      tag_107\n        /* \"#utility.yul\":3420:3421   */\n      dup3\n        /* \"#utility.yul\":3402:3422   */\n      tag_49\n      jump\t// in\n    tag_107:\n        /* \"#utility.yul\":3397:3422   */\n      swap2\n      pop\n        /* \"#utility.yul\":3436:3456   */\n      tag_108\n        /* \"#utility.yul\":3454:3455   */\n      dup4\n        /* \"#utility.yul\":3436:3456   */\n      tag_49\n      jump\t// in\n    tag_108:\n        /* \"#utility.yul\":3431:3456   */\n      swap3\n      pop\n        /* \"#utility.yul\":3475:3476   */\n      dup3\n        /* \"#utility.yul\":3465:3500   */\n      tag_109\n      jumpi\n        /* \"#utility.yul\":3480:3498   */\n      tag_110\n      tag_61\n      jump\t// in\n    tag_110:\n        /* \"#utility.yul\":3465:3500   */\n    tag_109:\n        /* \"#utility.yul\":3522:3523   */\n      dup3\n        /* \"#utility.yul\":3519:3520   */\n      dup3\n        /* \"#utility.yul\":3515:3524   */\n      div\n        /* \"#utility.yul\":3510:3524   */\n      swap1\n      pop\n        /* \"#utility.yul\":3345:3530   */\n      swap3\n      swap2\n      pop\n      pop\n      jump\t// out\n        /* \"#utility.yul\":3536:3727   */\n    tag_48:\n        /* \"#utility.yul\":3576:3579   */\n      0x00\n        /* \"#utility.yul\":3595:3615   */\n      tag_112\n        /* \"#utility.yul\":3613:3614   */\n      dup3\n        /* \"#utility.yul\":3595:3615   */\n      tag_49\n      jump\t// in\n    tag_112:\n        /* \"#utility.yul\":3590:3615   */\n      swap2\n      pop\n        /* \"#utility.yul\":3629:3649   */\n      tag_113\n        /* \"#utility.yul\":3647:3648   */\n      dup4\n        /* \"#utility.yul\":3629:3649   */\n      tag_49\n      jump\t// in\n    tag_113:\n        /* \"#utility.yul\":3624:3649   */\n      swap3\n      pop\n        /* \"#utility.yul\":3672:3673   */\n      dup3\n        /* \"#utility.yul\":3669:3670   */\n      dup3\n        /* \"#utility.yul\":3665:3674   */\n      add\n        /* \"#utility.yul\":3658:3674   */\n      swap1\n      pop\n        /* \"#utility.yul\":3693:3696   */\n      dup1\n        /* \"#utility.yul\":3690:3691   */\n      dup3\n        /* \"#utility.yul\":3687:3697   */\n      gt\n        /* \"#utility.yul\":3684:3720   */\n      iszero\n      tag_114\n      jumpi\n        /* \"#utility.yul\":3700:3718   */\n      tag_115\n      tag_62\n      jump\t// in\n    tag_115:\n        /* \"#utility.yul\":3684:3720   */\n    tag_114:\n        /* \"#utility.yul\":3536:3727   */\n      swap3\n      swap2\n      pop\n      pop\n      jump\t// out\n\n    auxdata: 0xa26469706673582212205daa1df7e5cfed1993d8cf3a1db37b761c5b066bf27d410ab8e5833bb4cfe76164736f6c634300081c0033\n}\n",
				"bytecode": {
					"linkReferences": {},
					"object": "6080604052348015600e575f5ffd5b506040516106c33803806106c38339818101604052810190602e9190606c565b80600281905550506092565b5f5ffd5b5f819050919050565b604e81603e565b81146057575f5ffd5b50565b5f815190506066816047565b92915050565b5f60208284031215607e57607d603a565b5b5f608984828501605a565b91505092915050565b6106248061009f5f395ff3fe608060405260043610610054575f3560e01c80633a98ef39146100585780635df81330146100825780636dd7d8ea146100c057806387269729146100e8578063ce7c2ac214610112578063d9527fa71461014e575b5f5ffd5b348015610063575f5ffd5b5061006c610158565b60405161007991906103c6565b60405180910390f35b34801561008d575f5ffd5b506100a860048036038101906100a3919061040d565b61015e565b6040516100b793929190610477565b60405180910390f35b3480156100cb575f5ffd5b506100e660048036038101906100e191906104d6565b6101b2565b005b3480156100f3575f5ffd5b506100fc6102a4565b60405161010991906103c6565b60405180910390f35b34801561011d575f5ffd5b50610138600480360381019061013391906104d6565b6102aa565b60405161014591906103c6565b60405180910390f35b6101566102be565b005b60035481565b6001818154811061016d575f80fd5b905f5260205f2090600302015f91509050805f015f9054906101000a900473ffffffffffffffffffffffffffffffffffffffff16908060010154908060020154905083565b600160405180606001604052808373ffffffffffffffffffffffffffffffffffffffff1681526020015f5f8573ffffffffffffffffffffffffffffffffffffffff1673ffffffffffffffffffffffffffffffffffffffff1681526020019081526020015f2054815260200142815250908060018154018082558091505060019003905f5260205f2090600302015f909190919091505f820151815f015f6101000a81548173ffffffffffffffffffffffffffffffffffffffff021916908373ffffffffffffffffffffffffffffffffffffffff1602179055506020820151816001015560408201518160020155505050565b60025481565b5f602052805f5260405f205f915090505481565b6002543410156102fa576040517f99d6307400000000000000000000000000000000000000000000000000000000815260040160405180910390fd5b5f60025434610309919061052e565b1115610341576040517f99d6307400000000000000000000000000000000000000000000000000000000815260040160405180910390fd5b5f60025434610350919061058b565b905080600381905550805f5f3373ffffffffffffffffffffffffffffffffffffffff1673ffffffffffffffffffffffffffffffffffffffff1681526020019081526020015f205f8282546103a491906105bb565b9250508190555050565b5f819050919050565b6103c0816103ae565b82525050565b5f6020820190506103d95f8301846103b7565b92915050565b5f5ffd5b6103ec816103ae565b81146103f6575f5ffd5b50565b5f81359050610407816103e3565b92915050565b5f60208284031215610422576104216103df565b5b5f61042f848285016103f9565b91505092915050565b5f73ffffffffffffffffffffffffffffffffffffffff82169050919050565b5f61046182610438565b9050919050565b61047181610457565b82525050565b5f60608201905061048a5f830186610468565b61049760208301856103b7565b6104a460408301846103b7565b949350505050565b6104b581610457565b81146104bf575f5ffd5b50565b5f813590506104d0816104ac565b92915050565b5f602082840312156104eb576104ea6103df565b5b5f6104f8848285016104c2565b91505092915050565b7f4e487b71000000000000000000000000000000000000000000000000000000005f52601260045260245ffd5b5f610538826103ae565b9150610543836103ae565b92508261055357610552610501565b5b828206905092915050565b7f4e487b71000000000000000000000000000000000000000000000000000000005f52601160045260245ffd5b5f610595826103ae565b91506105a0836103ae565b9250826105b0576105af610501565b5b828204905092915050565b5f6105c5826103ae565b91506105d0836103ae565b92508282019050808211156105e8576105e761055e565b5b9291505056fea26469706673582212205daa1df7e5cfed1993d8cf3a1db37b761c5b066bf27d410ab8e5833bb4cfe76164736f6c634300081c0033",
					"opcodes": "PUSH1 0x80 PUSH1 0x40 MSTORE CALLVALUE DUP1 ISZERO PUSH1 0xE JUMPI PUSH0 PUSH0 REVERT JUMPDEST POP PUSH1 0x40 MLOAD PUSH2 0x6C3 CODESIZE SUB DUP1 PUSH2 0x6C3 DUP4 CODECOPY DUP2 DUP2 ADD PUSH1 0x40 MSTORE DUP2 ADD SWAP1 PUSH1 0x2E SWAP2 SWAP1 PUSH1 0x6C JUMP JUMPDEST DUP1 PUSH1 0x2 DUP2 SWAP1 SSTORE POP POP PUSH1 0x92 JUMP JUMPDEST PUSH0 PUSH0 REVERT JUMPDEST PUSH0 DUP2 SWAP1 POP SWAP2 SWAP1 POP JUMP JUMPDEST PUSH1 0x4E DUP2 PUSH1 0x3E JUMP JUMPDEST DUP2 EQ PUSH1 0x57 JUMPI PUSH0 PUSH0 REVERT JUMPDEST POP JUMP JUMPDEST PUSH0 DUP2 MLOAD SWAP1 POP PUSH1 0x66 DUP2 PUSH1 0x47 JUMP JUMPDEST SWAP3 SWAP2 POP POP JUMP JUMPDEST PUSH0 PUSH1 0x20 DUP3 DUP5 SUB SLT ISZERO PUSH1 0x7E JUMPI PUSH1 0x7D PUSH1 0x3A JUMP JUMPDEST JUMPDEST PUSH0 PUSH1 0x89 DUP5 DUP3 DUP6 ADD PUSH1 0x5A JUMP JUMPDEST SWAP2 POP POP SWAP3 SWAP2 POP POP JUMP JUMPDEST PUSH2 0x624 DUP1 PUSH2 0x9F PUSH0 CODECOPY PUSH0 RETURN INVALID PUSH1 0x80 PUSH1 0x40 MSTORE PUSH1 0x4 CALLDATASIZE LT PUSH2 0x54 JUMPI PUSH0 CALLDATALOAD PUSH1 0xE0 SHR DUP1 PUSH4 0x3A98EF39 EQ PUSH2 0x58 JUMPI DUP1 PUSH4 0x5DF81330 EQ PUSH2 0x82 JUMPI DUP1 PUSH4 0x6DD7D8EA EQ PUSH2 0xC0 JUMPI DUP1 PUSH4 0x87269729 EQ PUSH2 0xE8 JUMPI DUP1 PUSH4 0xCE7C2AC2 EQ PUSH2 0x112 JUMPI DUP1 PUSH4 0xD9527FA7 EQ PUSH2 0x14E JUMPI JUMPDEST PUSH0 PUSH0 REVERT JUMPDEST CALLVALUE DUP1 ISZERO PUSH2 0x63 JUMPI PUSH0 PUSH0 REVERT JUMPDEST POP PUSH2 0x6C PUSH2 0x158 JUMP JUMPDEST PUSH1 0x40 MLOAD PUSH2 0x79 SWAP2 SWAP1 PUSH2 0x3C6 JUMP JUMPDEST PUSH1 0x40 MLOAD DUP1 SWAP2 SUB SWAP1 RETURN JUMPDEST CALLVALUE DUP1 ISZERO PUSH2 0x8D JUMPI PUSH0 PUSH0 REVERT JUMPDEST POP PUSH2 0xA8 PUSH1 0x4 DUP1 CALLDATASIZE SUB DUP2 ADD SWAP1 PUSH2 0xA3 SWAP2 SWAP1 PUSH2 0x40D JUMP JUMPDEST PUSH2 0x15E JUMP JUMPDEST PUSH1 0x40 MLOAD PUSH2 0xB7 SWAP4 SWAP3 SWAP2 SWAP1 PUSH2 0x477 JUMP JUMPDEST PUSH1 0x40 MLOAD DUP1 SWAP2 SUB SWAP1 RETURN JUMPDEST CALLVALUE DUP1 ISZERO PUSH2 0xCB JUMPI PUSH0 PUSH0 REVERT JUMPDEST POP PUSH2 0xE6 PUSH1 0x4 DUP1 CALLDATASIZE SUB DUP2 ADD SWAP1 PUSH2 0xE1 SWAP2 SWAP1 PUSH2 0x4D6 JUMP JUMPDEST PUSH2 0x1B2 JUMP JUMPDEST STOP JUMPDEST CALLVALUE DUP1 ISZERO PUSH2 0xF3 JUMPI PUSH0 PUSH0 REVERT JUMPDEST POP PUSH2 0xFC PUSH2 0x2A4 JUMP JUMPDEST PUSH1 0x40 MLOAD PUSH2 0x109 SWAP2 SWAP1 PUSH2 0x3C6 JUMP JUMPDEST PUSH1 0x40 MLOAD DUP1 SWAP2 SUB SWAP1 RETURN JUMPDEST CALLVALUE DUP1 ISZERO PUSH2 0x11D JUMPI PUSH0 PUSH0 REVERT JUMPDEST POP PUSH2 0x138 PUSH1 0x4 DUP1 CALLDATASIZE SUB DUP2 ADD SWAP1 PUSH2 0x133 SWAP2 SWAP1 PUSH2 0x4D6 JUMP JUMPDEST PUSH2 0x2AA JUMP JUMPDEST PUSH1 0x40 MLOAD PUSH2 0x145 SWAP2 SWAP1 PUSH2 0x3C6 JUMP JUMPDEST PUSH1 0x40 MLOAD DUP1 SWAP2 SUB SWAP1 RETURN JUMPDEST PUSH2 0x156 PUSH2 0x2BE JUMP JUMPDEST STOP JUMPDEST PUSH1 0x3 SLOAD DUP2 JUMP JUMPDEST PUSH1 0x1 DUP2 DUP2 SLOAD DUP2 LT PUSH2 0x16D JUMPI PUSH0 DUP1 REVERT JUMPDEST SWAP1 PUSH0 MSTORE PUSH1 0x20 PUSH0 KECCAK256 SWAP1 PUSH1 0x3 MUL ADD PUSH0 SWAP2 POP SWAP1 POP DUP1 PUSH0 ADD PUSH0 SWAP1 SLOAD SWAP1 PUSH2 0x100 EXP SWAP1 DIV PUSH20 0xFFFFFFFFFFFFFFFFFFFFFFFFFFFFFFFFFFFFFFFF AND SWAP1 DUP1 PUSH1 0x1 ADD SLOAD SWAP1 DUP1 PUSH1 0x2 ADD SLOAD SWAP1 POP DUP4 JUMP JUMPDEST PUSH1 0x1 PUSH1 0x40 MLOAD DUP1 PUSH1 0x60 ADD PUSH1 0x40 MSTORE DUP1 DUP4 PUSH20 0xFFFFFFFFFFFFFFFFFFFFFFFFFFFFFFFFFFFFFFFF AND DUP2 MSTORE PUSH1 0x20 ADD PUSH0 PUSH0 DUP6 PUSH20 0xFFFFFFFFFFFFFFFFFFFFFFFFFFFFFFFFFFFFFFFF AND PUSH20 0xFFFFFFFFFFFFFFFFFFFFFFFFFFFFFFFFFFFFFFFF AND DUP2 MSTORE PUSH1 0x20 ADD SWAP1 DUP2 MSTORE PUSH1 0x20 ADD PUSH0 KECCAK256 SLOAD DUP2 MSTORE PUSH1 0x20 ADD TIMESTAMP DUP2 MSTORE POP SWAP1 DUP1 PUSH1 0x1 DUP2 SLOAD ADD DUP1 DUP3 SSTORE DUP1 SWAP2 POP POP PUSH1 0x1 SWAP1 SUB SWAP1 PUSH0 MSTORE PUSH1 0x20 PUSH0 KECCAK256 SWAP1 PUSH1 0x3 MUL ADD PUSH0 SWAP1 SWAP2 SWAP1 SWAP2 SWAP1 SWAP2 POP PUSH0 DUP3 ADD MLOAD DUP2 PUSH0 ADD PUSH0 PUSH2 0x100 EXP DUP2 SLOAD DUP2 PUSH20 0xFFFFFFFFFFFFFFFFFFFFFFFFFFFFFFFFFFFFFFFF MUL NOT AND SWAP1 DUP4 PUSH20 0xFFFFFFFFFFFFFFFFFFFFFFFFFFFFFFFFFFFFFFFF AND MUL OR SWAP1 SSTORE POP PUSH1 0x20 DUP3 ADD MLOAD DUP2 PUSH1 0x1 ADD SSTORE PUSH1 0x40 DUP3 ADD MLOAD DUP2 PUSH1 0x2 ADD SSTORE POP POP POP JUMP JUMPDEST PUSH1 0x2 SLOAD DUP2 JUMP JUMPDEST PUSH0 PUSH1 0x20 MSTORE DUP1 PUSH0 MSTORE PUSH1 0x40 PUSH0 KECCAK256 PUSH0 SWAP2 POP SWAP1 POP SLOAD DUP2 JUMP JUMPDEST PUSH1 0x2 SLOAD CALLVALUE LT ISZERO PUSH2 0x2FA JUMPI PUSH1 0x40 MLOAD PUSH32 0x99D6307400000000000000000000000000000000000000000000000000000000 DUP2 MSTORE PUSH1 0x4 ADD PUSH1 0x40 MLOAD DUP1 SWAP2 SUB SWAP1 REVERT JUMPDEST PUSH0 PUSH1 0x2 SLOAD CALLVALUE PUSH2 0x309 SWAP2 SWAP1 PUSH2 0x52E JUMP JUMPDEST GT ISZERO PUSH2 0x341 JUMPI PUSH1 0x40 MLOAD PUSH32 0x99D6307400000000000000000000000000000000000000000000000000000000 DUP2 MSTORE PUSH1 0x4 ADD PUSH1 0x40 MLOAD DUP1 SWAP2 SUB SWAP1 REVERT JUMPDEST PUSH0 PUSH1 0x2 SLOAD CALLVALUE PUSH2 0x350 SWAP2 SWAP1 PUSH2 0x58B JUMP JUMPDEST SWAP1 POP DUP1 PUSH1 0x3 DUP2 SWAP1 SSTORE POP DUP1 PUSH0 PUSH0 CALLER PUSH20 0xFFFFFFFFFFFFFFFFFFFFFFFFFFFFFFFFFFFFFFFF AND PUSH20 0xFFFFFFFFFFFFFFFFFFFFFFFFFFFFFFFFFFFFFFFF AND DUP2 MSTORE PUSH1 0x20 ADD SWAP1 DUP2 MSTORE PUSH1 0x20 ADD PUSH0 KECCAK256 PUSH0 DUP3 DUP3 SLOAD PUSH2 0x3A4 SWAP2 SWAP1 PUSH2 0x5BB JUMP JUMPDEST SWAP3 POP POP DUP2 SWAP1 SSTORE POP POP JUMP JUMPDEST PUSH0 DUP2 SWAP1 POP SWAP2 SWAP1 POP JUMP JUMPDEST PUSH2 0x3C0 DUP2 PUSH2 0x3AE JUMP JUMPDEST DUP3 MSTORE POP POP JUMP JUMPDEST PUSH0 PUSH1 0x20 DUP3 ADD SWAP1 POP PUSH2 0x3D9 PUSH0 DUP4 ADD DUP5 PUSH2 0x3B7 JUMP JUMPDEST SWAP3 SWAP2 POP POP JUMP JUMPDEST PUSH0 PUSH0 REVERT JUMPDEST PUSH2 0x3EC DUP2 PUSH2 0x3AE JUMP JUMPDEST DUP2 EQ PUSH2 0x3F6 JUMPI PUSH0 PUSH0 REVERT JUMPDEST POP JUMP JUMPDEST PUSH0 DUP2 CALLDATALOAD SWAP1 POP PUSH2 0x407 DUP2 PUSH2 0x3E3 JUMP JUMPDEST SWAP3 SWAP2 POP POP JUMP JUMPDEST PUSH0 PUSH1 0x20 DUP3 DUP5 SUB SLT ISZERO PUSH2 0x422 JUMPI PUSH2 0x421 PUSH2 0x3DF JUMP JUMPDEST JUMPDEST PUSH0 PUSH2 0x42F DUP5 DUP3 DUP6 ADD PUSH2 0x3F9 JUMP JUMPDEST SWAP2 POP POP SWAP3 SWAP2 POP POP JUMP JUMPDEST PUSH0 PUSH20 0xFFFFFFFFFFFFFFFFFFFFFFFFFFFFFFFFFFFFFFFF DUP3 AND SWAP1 POP SWAP2 SWAP1 POP JUMP JUMPDEST PUSH0 PUSH2 0x461 DUP3 PUSH2 0x438 JUMP JUMPDEST SWAP1 POP SWAP2 SWAP1 POP JUMP JUMPDEST PUSH2 0x471 DUP2 PUSH2 0x457 JUMP JUMPDEST DUP3 MSTORE POP POP JUMP JUMPDEST PUSH0 PUSH1 0x60 DUP3 ADD SWAP1 POP PUSH2 0x48A PUSH0 DUP4 ADD DUP7 PUSH2 0x468 JUMP JUMPDEST PUSH2 0x497 PUSH1 0x20 DUP4 ADD DUP6 PUSH2 0x3B7 JUMP JUMPDEST PUSH2 0x4A4 PUSH1 0x40 DUP4 ADD DUP5 PUSH2 0x3B7 JUMP JUMPDEST SWAP5 SWAP4 POP POP POP POP JUMP JUMPDEST PUSH2 0x4B5 DUP2 PUSH2 0x457 JUMP JUMPDEST DUP2 EQ PUSH2 0x4BF JUMPI PUSH0 PUSH0 REVERT JUMPDEST POP JUMP JUMPDEST PUSH0 DUP2 CALLDATALOAD SWAP1 POP PUSH2 0x4D0 DUP2 PUSH2 0x4AC JUMP JUMPDEST SWAP3 SWAP2 POP POP JUMP JUMPDEST PUSH0 PUSH1 0x20 DUP3 DUP5 SUB SLT ISZERO PUSH2 0x4EB JUMPI PUSH2 0x4EA PUSH2 0x3DF JUMP JUMPDEST JUMPDEST PUSH0 PUSH2 0x4F8 DUP5 DUP3 DUP6 ADD PUSH2 0x4C2 JUMP JUMPDEST SWAP2 POP POP SWAP3 SWAP2 POP POP JUMP JUMPDEST PUSH32 0x4E487B7100000000000000000000000000000000000000000000000000000000 PUSH0 MSTORE PUSH1 0x12 PUSH1 0x4 MSTORE PUSH1 0x24 PUSH0 REVERT JUMPDEST PUSH0 PUSH2 0x538 DUP3 PUSH2 0x3AE JUMP JUMPDEST SWAP2 POP PUSH2 0x543 DUP4 PUSH2 0x3AE JUMP JUMPDEST SWAP3 POP DUP3 PUSH2 0x553 JUMPI PUSH2 0x552 PUSH2 0x501 JUMP JUMPDEST JUMPDEST DUP3 DUP3 MOD SWAP1 POP SWAP3 SWAP2 POP POP JUMP JUMPDEST PUSH32 0x4E487B7100000000000000000000000000000000000000000000000000000000 PUSH0 MSTORE PUSH1 0x11 PUSH1 0x4 MSTORE PUSH1 0x24 PUSH0 REVERT JUMPDEST PUSH0 PUSH2 0x595 DUP3 PUSH2 0x3AE JUMP JUMPDEST SWAP2 POP PUSH2 0x5A0 DUP4 PUSH2 0x3AE JUMP JUMPDEST SWAP3 POP DUP3 PUSH2 0x5B0 JUMPI PUSH2 0x5AF PUSH2 0x501 JUMP JUMPDEST JUMPDEST DUP3 DUP3 DIV SWAP1 POP SWAP3 SWAP2 POP POP JUMP JUMPDEST PUSH0 PUSH2 0x5C5 DUP3 PUSH2 0x3AE JUMP JUMPDEST SWAP2 POP PUSH2 0x5D0 DUP4 PUSH2 0x3AE JUMP JUMPDEST SWAP3 POP DUP3 DUP3 ADD SWAP1 POP DUP1 DUP3 GT ISZERO PUSH2 0x5E8 JUMPI PUSH2 0x5E7 PUSH2 0x55E JUMP JUMPDEST JUMPDEST SWAP3 SWAP2 POP POP JUMP INVALID LOG2 PUSH5 0x6970667358 0x22 SLT KECCAK256 TSTORE 0xAA SAR 0xF7 0xE5 0xCF 0xED NOT SWAP4 0xD8 0xCF GASPRICE SAR 0xB3 PUSH28 0x761C5B066BF27D410AB8E5833BB4CFE76164736F6C634300081C0033 "
				},
				"gasEstimates": {
					"creation": {
						"codeDepositCost": "314400",
						"executionCost": "infinite",
						"totalCost": "infinite"
					},
					"external": {
						"buyShares()": "infinite",
						"sharePrice()": "2469",
						"shares(address)": "2867",
						"totalShares()": "2403",
						"vote(address)": "95593",
						"votes(uint256)": "infinite"
					}
				},
				"methodIdentifiers": {
					"buyShares()": "d9527fa7",
					"sharePrice()": "87269729",
					"shares(address)": "ce7c2ac2",
					"totalShares()": "3a98ef39",
					"vote(address)": "6dd7d8ea",
					"votes(uint256)": "5df81330"
				}
			},
			"storageLayout": {
				"storage": [
					{
						"astId": 14,
						"contract": "Solidity Fundamentals/Lab/Crowdfunding.sol:Crowdfunding",
						"label": "shares",
						"offset": 0,
						"slot": "0",
						"type": "t_mapping(t_address,t_uint256)"
					},
					{
						"astId": 18,
						"contract": "Solidity Fundamentals/Lab/Crowdfunding.sol:Crowdfunding",
						"label": "votes",
						"offset": 0,
						"slot": "1",
						"type": "t_array(t_struct(Vote)8_storage)dyn_storage"
					},
					{
						"astId": 20,
						"contract": "Solidity Fundamentals/Lab/Crowdfunding.sol:Crowdfunding",
						"label": "sharePrice",
						"offset": 0,
						"slot": "2",
						"type": "t_uint256"
					},
					{
						"astId": 22,
						"contract": "Solidity Fundamentals/Lab/Crowdfunding.sol:Crowdfunding",
						"label": "totalShares",
						"offset": 0,
						"slot": "3",
						"type": "t_uint256"
					}
				],
				"types": {
					"t_address": {
						"encoding": "inplace",
						"label": "address",
						"numberOfBytes": "20"
					},
					"t_array(t_struct(Vote)8_storage)dyn_storage": {
						"base": "t_struct(Vote)8_storage",
						"encoding": "dynamic_array",
						"label": "struct Vote[]",
						"numberOfBytes": "32"
					},
					"t_mapping(t_address,t_uint256)": {
						"encoding": "mapping",
						"key": "t_address",
						"label": "mapping(address => uint256)",
						"numberOfBytes": "32",
						"value": "t_uint256"
					},
					"t_struct(Vote)8_storage": {
						"encoding": "inplace",
						"label": "struct Vote",
						"members": [
							{
								"astId": 3,
								"contract": "Solidity Fundamentals/Lab/Crowdfunding.sol:Crowdfunding",
								"label": "shareholder",
								"offset": 0,
								"slot": "0",
								"type": "t_address"
							},
							{
								"astId": 5,
								"contract": "Solidity Fundamentals/Lab/Crowdfunding.sol:Crowdfunding",
								"label": "shares",
								"offset": 0,
								"slot": "1",
								"type": "t_uint256"
							},
							{
								"astId": 7,
								"contract": "Solidity Fundamentals/Lab/Crowdfunding.sol:Crowdfunding",
								"label": "timestamp",
								"offset": 0,
								"slot": "2",
								"type": "t_uint256"
							}
						],
						"numberOfBytes": "96"
					},
					"t_uint256": {
						"encoding": "inplace",
						"label": "uint256",
						"numberOfBytes": "32"
					}
				}
			},
			"userdoc": {
				"kind": "user",
				"methods": {},
				"version": 1
			}
		}
	}
}