{
	"data": {
		"bytecode": {
			"linkReferences": {},
			"object": "6080604052348015600e575f5ffd5b506106268061001c5f395ff3fe608060405234801561000f575f5ffd5b5060043610610034575f3560e01c806307416a32146100385780632ddbd13a14610068575b5f5ffd5b610052600480360381019061004d9190610220565b610086565b60405161005f919061027f565b60405180910390f35b6100706101e4565b60405161007d919061027f565b60405180910390f35b5f60018410156100d0577fdf76322bf7054ef3fbb4db9444ea56645b3acc2aad8cafc25282f3138f2f921b846040516100bf9190610318565b60405180910390a15f5490506101dd565b60018310806100df5750606483115b15610124577fdf76322bf7054ef3fbb4db9444ea56645b3acc2aad8cafc25282f3138f2f921b8360405161011391906103b4565b60405180910390a15f5490506101dd565b600182101561016d577fdf76322bf7054ef3fbb4db9444ea56645b3acc2aad8cafc25282f3138f2f921b8260405161015c9190610450565b60405180910390a15f5490506101dd565b606482848661017c91906104a9565b61018691906104a9565b6101909190610517565b8461019b9190610547565b5f819055507fdf76322bf7054ef3fbb4db9444ea56645b3acc2aad8cafc25282f3138f2f921b5f546040516101d091906105c4565b60405180910390a15f5490505b9392505050565b5f5481565b5f5ffd5b5f819050919050565b6101ff816101ed565b8114610209575f5ffd5b50565b5f8135905061021a816101f6565b92915050565b5f5f5f60608486031215610237576102366101e9565b5b5f6102448682870161020c565b93505060206102558682870161020c565b92505060406102668682870161020c565b9150509250925092565b610279816101ed565b82525050565b5f6020820190506102925f830184610270565b92915050565b5f82825260208201905092915050565b7f4c6f616e20225072696e636970616c222073686f756c642062696767657220745f8201527f68656e207a65726f2e0000000000000000000000000000000000000000000000602082015250565b5f610302602983610298565b915061030d826102a8565b604082019050919050565b5f60408201905061032b5f830184610270565b818103602083015261033c816102f6565b905092915050565b7f4c6f616e202252617465222073686f756c64206265206265747765656e2031205f8201527f616e64203130302e000000000000000000000000000000000000000000000000602082015250565b5f61039e602883610298565b91506103a982610344565b604082019050919050565b5f6040820190506103c75f830184610270565b81810360208301526103d881610392565b905092915050565b7f4c6f616e202259656172222073686f756c6420626967676572207468656e207a5f8201527f65726f2e00000000000000000000000000000000000000000000000000000000602082015250565b5f61043a602483610298565b9150610445826103e0565b604082019050919050565b5f6040820190506104635f830184610270565b81810360208301526104748161042e565b905092915050565b7f4e487b71000000000000000000000000000000000000000000000000000000005f52601160045260245ffd5b5f6104b3826101ed565b91506104be836101ed565b92508282026104cc816101ed565b915082820484148315176104e3576104e261047c565b5b5092915050565b7f4e487b71000000000000000000000000000000000000000000000000000000005f52601260045260245ffd5b5f610521826101ed565b915061052c836101ed565b92508261053c5761053b6104ea565b5b828204905092915050565b5f610551826101ed565b915061055c836101ed565b92508282019050808211156105745761057361047c565b5b92915050565b7f546f74616c2069732063616c63756c617465642e0000000000000000000000005f82015250565b5f6105ae601483610298565b91506105b98261057a565b602082019050919050565b5f6040820190506105d75f830184610270565b81810360208301526105e8816105a2565b90509291505056fea264697066735822122086097a22016d9c81f0783ec11d1393f871fea16e3aa9ebcdcd25f244064f653064736f6c634300081c0033",
			"opcodes": "PUSH1 0x80 PUSH1 0x40 MSTORE CALLVALUE DUP1 ISZERO PUSH1 0xE JUMPI PUSH0 PUSH0 REVERT JUMPDEST POP PUSH2 0x626 DUP1 PUSH2 0x1C PUSH0 CODECOPY PUSH0 RETURN INVALID PUSH1 0x80 PUSH1 0x40 MSTORE CALLVALUE DUP1 ISZERO PUSH2 0xF JUMPI PUSH0 PUSH0 REVERT JUMPDEST POP PUSH1 0x4 CALLDATASIZE LT PUSH2 0x34 JUMPI PUSH0 CALLDATALOAD PUSH1 0xE0 SHR DUP1 PUSH4 0x7416A32 EQ PUSH2 0x38 JUMPI DUP1 PUSH4 0x2DDBD13A EQ PUSH2 0x68 JUMPI JUMPDEST PUSH0 PUSH0 REVERT JUMPDEST PUSH2 0x52 PUSH1 0x4 DUP1 CALLDATASIZE SUB DUP2 ADD SWAP1 PUSH2 0x4D SWAP2 SWAP1 PUSH2 0x220 JUMP JUMPDEST PUSH2 0x86 JUMP JUMPDEST PUSH1 0x40 MLOAD PUSH2 0x5F SWAP2 SWAP1 PUSH2 0x27F JUMP JUMPDEST PUSH1 0x40 MLOAD DUP1 SWAP2 SUB SWAP1 RETURN JUMPDEST PUSH2 0x70 PUSH2 0x1E4 JUMP JUMPDEST PUSH1 0x40 MLOAD PUSH2 0x7D SWAP2 SWAP1 PUSH2 0x27F JUMP JUMPDEST PUSH1 0x40 MLOAD DUP1 SWAP2 SUB SWAP1 RETURN JUMPDEST PUSH0 PUSH1 0x1 DUP5 LT ISZERO PUSH2 0xD0 JUMPI PUSH32 0xDF76322BF7054EF3FBB4DB9444EA56645B3ACC2AAD8CAFC25282F3138F2F921B DUP5 PUSH1 0x40 MLOAD PUSH2 0xBF SWAP2 SWAP1 PUSH2 0x318 JUMP JUMPDEST PUSH1 0x40 MLOAD DUP1 SWAP2 SUB SWAP1 LOG1 PUSH0 SLOAD SWAP1 POP PUSH2 0x1DD JUMP JUMPDEST PUSH1 0x1 DUP4 LT DUP1 PUSH2 0xDF JUMPI POP PUSH1 0x64 DUP4 GT JUMPDEST ISZERO PUSH2 0x124 JUMPI PUSH32 0xDF76322BF7054EF3FBB4DB9444EA56645B3ACC2AAD8CAFC25282F3138F2F921B DUP4 PUSH1 0x40 MLOAD PUSH2 0x113 SWAP2 SWAP1 PUSH2 0x3B4 JUMP JUMPDEST PUSH1 0x40 MLOAD DUP1 SWAP2 SUB SWAP1 LOG1 PUSH0 SLOAD SWAP1 POP PUSH2 0x1DD JUMP JUMPDEST PUSH1 0x1 DUP3 LT ISZERO PUSH2 0x16D JUMPI PUSH32 0xDF76322BF7054EF3FBB4DB9444EA56645B3ACC2AAD8CAFC25282F3138F2F921B DUP3 PUSH1 0x40 MLOAD PUSH2 0x15C SWAP2 SWAP1 PUSH2 0x450 JUMP JUMPDEST PUSH1 0x40 MLOAD DUP1 SWAP2 SUB SWAP1 LOG1 PUSH0 SLOAD SWAP1 POP PUSH2 0x1DD JUMP JUMPDEST PUSH1 0x64 DUP3 DUP5 DUP7 PUSH2 0x17C SWAP2 SWAP1 PUSH2 0x4A9 JUMP JUMPDEST PUSH2 0x186 SWAP2 SWAP1 PUSH2 0x4A9 JUMP JUMPDEST PUSH2 0x190 SWAP2 SWAP1 PUSH2 0x517 JUMP JUMPDEST DUP5 PUSH2 0x19B SWAP2 SWAP1 PUSH2 0x547 JUMP JUMPDEST PUSH0 DUP2 SWAP1 SSTORE POP PUSH32 0xDF76322BF7054EF3FBB4DB9444EA56645B3ACC2AAD8CAFC25282F3138F2F921B PUSH0 SLOAD PUSH1 0x40 MLOAD PUSH2 0x1D0 SWAP2 SWAP1 PUSH2 0x5C4 JUMP JUMPDEST PUSH1 0x40 MLOAD DUP1 SWAP2 SUB SWAP1 LOG1 PUSH0 SLOAD SWAP1 POP JUMPDEST SWAP4 SWAP3 POP POP POP JUMP JUMPDEST PUSH0 SLOAD DUP2 JUMP JUMPDEST PUSH0 PUSH0 REVERT JUMPDEST PUSH0 DUP2 SWAP1 POP SWAP2 SWAP1 POP JUMP JUMPDEST PUSH2 0x1FF DUP2 PUSH2 0x1ED JUMP JUMPDEST DUP2 EQ PUSH2 0x209 JUMPI PUSH0 PUSH0 REVERT JUMPDEST POP JUMP JUMPDEST PUSH0 DUP2 CALLDATALOAD SWAP1 POP PUSH2 0x21A DUP2 PUSH2 0x1F6 JUMP JUMPDEST SWAP3 SWAP2 POP POP JUMP JUMPDEST PUSH0 PUSH0 PUSH0 PUSH1 0x60 DUP5 DUP7 SUB SLT ISZERO PUSH2 0x237 JUMPI PUSH2 0x236 PUSH2 0x1E9 JUMP JUMPDEST JUMPDEST PUSH0 PUSH2 0x244 DUP7 DUP3 DUP8 ADD PUSH2 0x20C JUMP JUMPDEST SWAP4 POP POP PUSH1 0x20 PUSH2 0x255 DUP7 DUP3 DUP8 ADD PUSH2 0x20C JUMP JUMPDEST SWAP3 POP POP PUSH1 0x40 PUSH2 0x266 DUP7 DUP3 DUP8 ADD PUSH2 0x20C JUMP JUMPDEST SWAP2 POP POP SWAP3 POP SWAP3 POP SWAP3 JUMP JUMPDEST PUSH2 0x279 DUP2 PUSH2 0x1ED JUMP JUMPDEST DUP3 MSTORE POP POP JUMP JUMPDEST PUSH0 PUSH1 0x20 DUP3 ADD SWAP1 POP PUSH2 0x292 PUSH0 DUP4 ADD DUP5 PUSH2 0x270 JUMP JUMPDEST SWAP3 SWAP2 POP POP JUMP JUMPDEST PUSH0 DUP3 DUP3 MSTORE PUSH1 0x20 DUP3 ADD SWAP1 POP SWAP3 SWAP2 POP POP JUMP JUMPDEST PUSH32 0x4C6F616E20225072696E636970616C222073686F756C64206269676765722074 PUSH0 DUP3 ADD MSTORE PUSH32 0x68656E207A65726F2E0000000000000000000000000000000000000000000000 PUSH1 0x20 DUP3 ADD MSTORE POP JUMP JUMPDEST PUSH0 PUSH2 0x302 PUSH1 0x29 DUP4 PUSH2 0x298 JUMP JUMPDEST SWAP2 POP PUSH2 0x30D DUP3 PUSH2 0x2A8 JUMP JUMPDEST PUSH1 0x40 DUP3 ADD SWAP1 POP SWAP2 SWAP1 POP JUMP JUMPDEST PUSH0 PUSH1 0x40 DUP3 ADD SWAP1 POP PUSH2 0x32B PUSH0 DUP4 ADD DUP5 PUSH2 0x270 JUMP JUMPDEST DUP2 DUP2 SUB PUSH1 0x20 DUP4 ADD MSTORE PUSH2 0x33C DUP2 PUSH2 0x2F6 JUMP JUMPDEST SWAP1 POP SWAP3 SWAP2 POP POP JUMP JUMPDEST PUSH32 0x4C6F616E202252617465222073686F756C64206265206265747765656E203120 PUSH0 DUP3 ADD MSTORE PUSH32 0x616E64203130302E000000000000000000000000000000000000000000000000 PUSH1 0x20 DUP3 ADD MSTORE POP JUMP JUMPDEST PUSH0 PUSH2 0x39E PUSH1 0x28 DUP4 PUSH2 0x298 JUMP JUMPDEST SWAP2 POP PUSH2 0x3A9 DUP3 PUSH2 0x344 JUMP JUMPDEST PUSH1 0x40 DUP3 ADD SWAP1 POP SWAP2 SWAP1 POP JUMP JUMPDEST PUSH0 PUSH1 0x40 DUP3 ADD SWAP1 POP PUSH2 0x3C7 PUSH0 DUP4 ADD DUP5 PUSH2 0x270 JUMP JUMPDEST DUP2 DUP2 SUB PUSH1 0x20 DUP4 ADD MSTORE PUSH2 0x3D8 DUP2 PUSH2 0x392 JUMP JUMPDEST SWAP1 POP SWAP3 SWAP2 POP POP JUMP JUMPDEST PUSH32 0x4C6F616E202259656172222073686F756C6420626967676572207468656E207A PUSH0 DUP3 ADD MSTORE PUSH32 0x65726F2E00000000000000000000000000000000000000000000000000000000 PUSH1 0x20 DUP3 ADD MSTORE POP JUMP JUMPDEST PUSH0 PUSH2 0x43A PUSH1 0x24 DUP4 PUSH2 0x298 JUMP JUMPDEST SWAP2 POP PUSH2 0x445 DUP3 PUSH2 0x3E0 JUMP JUMPDEST PUSH1 0x40 DUP3 ADD SWAP1 POP SWAP2 SWAP1 POP JUMP JUMPDEST PUSH0 PUSH1 0x40 DUP3 ADD SWAP1 POP PUSH2 0x463 PUSH0 DUP4 ADD DUP5 PUSH2 0x270 JUMP JUMPDEST DUP2 DUP2 SUB PUSH1 0x20 DUP4 ADD MSTORE PUSH2 0x474 DUP2 PUSH2 0x42E JUMP JUMPDEST SWAP1 POP SWAP3 SWAP2 POP POP JUMP JUMPDEST PUSH32 0x4E487B7100000000000000000000000000000000000000000000000000000000 PUSH0 MSTORE PUSH1 0x11 PUSH1 0x4 MSTORE PUSH1 0x24 PUSH0 REVERT JUMPDEST PUSH0 PUSH2 0x4B3 DUP3 PUSH2 0x1ED JUMP JUMPDEST SWAP2 POP PUSH2 0x4BE DUP4 PUSH2 0x1ED JUMP JUMPDEST SWAP3 POP DUP3 DUP3 MUL PUSH2 0x4CC DUP2 PUSH2 0x1ED JUMP JUMPDEST SWAP2 POP DUP3 DUP3 DIV DUP5 EQ DUP4 ISZERO OR PUSH2 0x4E3 JUMPI PUSH2 0x4E2 PUSH2 0x47C JUMP JUMPDEST JUMPDEST POP SWAP3 SWAP2 POP POP JUMP JUMPDEST PUSH32 0x4E487B7100000000000000000000000000000000000000000000000000000000 PUSH0 MSTORE PUSH1 0x12 PUSH1 0x4 MSTORE PUSH1 0x24 PUSH0 REVERT JUMPDEST PUSH0 PUSH2 0x521 DUP3 PUSH2 0x1ED JUMP JUMPDEST SWAP2 POP PUSH2 0x52C DUP4 PUSH2 0x1ED JUMP JUMPDEST SWAP3 POP DUP3 PUSH2 0x53C JUMPI PUSH2 0x53B PUSH2 0x4EA JUMP JUMPDEST JUMPDEST DUP3 DUP3 DIV SWAP1 POP SWAP3 SWAP2 POP POP JUMP JUMPDEST PUSH0 PUSH2 0x551 DUP3 PUSH2 0x1ED JUMP JUMPDEST SWAP2 POP PUSH2 0x55C DUP4 PUSH2 0x1ED JUMP JUMPDEST SWAP3 POP DUP3 DUP3 ADD SWAP1 POP DUP1 DUP3 GT ISZERO PUSH2 0x574 JUMPI PUSH2 0x573 PUSH2 0x47C JUMP JUMPDEST JUMPDEST SWAP3 SWAP2 POP POP JUMP JUMPDEST PUSH32 0x546F74616C2069732063616C63756C617465642E000000000000000000000000 PUSH0 DUP3 ADD MSTORE POP JUMP JUMPDEST PUSH0 PUSH2 0x5AE PUSH1 0x14 DUP4 PUSH2 0x298 JUMP JUMPDEST SWAP2 POP PUSH2 0x5B9 DUP3 PUSH2 0x57A JUMP JUMPDEST PUSH1 0x20 DUP3 ADD SWAP1 POP SWAP2 SWAP1 POP JUMP JUMPDEST PUSH0 PUSH1 0x40 DUP3 ADD SWAP1 POP PUSH2 0x5D7 PUSH0 DUP4 ADD DUP5 PUSH2 0x270 JUMP JUMPDEST DUP2 DUP2 SUB PUSH1 0x20 DUP4 ADD MSTORE PUSH2 0x5E8 DUP2 PUSH2 0x5A2 JUMP JUMPDEST SWAP1 POP SWAP3 SWAP2 POP POP JUMP INVALID LOG2 PUSH5 0x6970667358 0x22 SLT KECCAK256 DUP7 MULMOD PUSH27 0x22016D9C81F0783EC11D1393F871FEA16E3AA9EBCDCD25F244064F PUSH6 0x3064736F6C63 NUMBER STOP ADDMOD SHR STOP CALLER "
		},
		"gasEstimates": {
			"creation": {
				"codeDepositCost": "314800",
				"executionCost": "353",
				"totalCost": "315153"
			},
			"external": {
				"errorIsLogget(uint256,uint256,uint256)": "infinite",
				"total()": "2424"
			}
		},
		"methodIdentifiers": {
			"errorIsLogget(uint256,uint256,uint256)": "07416a32",
			"total()": "2ddbd13a"
		}
	},
	"abi": [
		{
			"anonymous": false,
			"inputs": [
				{
					"indexed": false,
					"internalType": "uint256",
					"name": "input",
					"type": "uint256"
				},
				{
					"indexed": false,
					"internalType": "string",
					"name": "reason",
					"type": "string"
				}
			],
			"name": "InputRejected",
			"type": "event"
		},
		{
			"inputs": [
				{
					"internalType": "uint256",
					"name": "principal",
					"type": "uint256"
				},
				{
					"internalType": "uint256",
					"name": "rate",
					"type": "uint256"
				},
				{
					"internalType": "uint256",
					"name": "year",
					"type": "uint256"
				}
			],
			"name": "errorIsLogget",
			"outputs": [
				{
					"internalType": "uint256",
					"name": "",
					"type": "uint256"
				}
			],
			"stateMutability": "nonpayable",
			"type": "function"
		},
		{
			"inputs": [],
			"name": "total",
			"outputs": [
				{
					"internalType": "uint256",
					"name": "",
					"type": "uint256"
				}
			],
			"stateMutability": "view",
			"type": "function"
		}
	]
}